:020000040800F2
:100000000050002021020008270200082B020008EF
:100010009D020008A1020008E9020008000000009B
:100020000000000000000000000000003103000894
:10003000350300080000000039030008DD07000850
:100040004D0300084D0300084D0300084D03000850
:100050004D0300084D030008410C00085D0C00082A
:100060004D0300084D0300084D0300084D03000830
:100070004D0300084D0300084D0300084D03000820
:100080004D0300084D0300084D0300084D03000810
:100090004D0300084D0300084D0300084D03000800
:1000A0004D0300084D0300084D0300084D030008F0
:1000B0004D0300084D0300084D0300084D030008E0
:1000C0004D0300084D0300084D0300084D030008D0
:1000D0004D030008590700084D0300084D030008B0
:1000E0004D0300084D0300084D0300080000000008
:1000F0000000000000000000000000000000000000
:1001000000000000000000005FF808F100B583B0B7
:1001100000F0AAF9304B314A1360314A1360314B79
:10012000314A32498B4204D21168196004330432D7
:10013000F7E72A4B1A682E4B9A4200D0FEE7284B6D
:100140001A682C4B9A42F9D1234B2B4A13602B4A45
:1001500013602B4B02E000221A600433294A9342B9
:10016000F9D3254B1B6813B9244B1B6803B1FEE779
:1001700000F086F9694601A800F022F9224C234BD1
:10018000E41AA4100025AC4214DC214C214BE41AE3
:10019000A4100025AC4213DC0099019801F028FC62
:1001A00005461D4C1D4BE41AA410002C0EDC2846FD
:1001B00000F0E2F8154B53F8253098470135E2E797
:1001C000144B53F8253098470135E3E7013C134BB6
:1001D00053F824309847E8E7BABADECA0000002096
:1001E00088000020000000203C2600088C00002031
:1001F00078563412325476988C0000201C29002046
:100200008C000020202900207803000878030008D3
:1002100078030008780300087803000878030008D2
:1002200008B5FFF773FF00BEFEE71EF0040F0CBF1A
:10023000EFF30880EFF309807146414A10472DE93A
:10024000F04182B004468846124B5E6B9F6B9D6AFC
:100250001B6B13F0020F03D00E4BDB6A002B0CDB81
:100260000D4800F0B5F8CDF800803B4632462946EF
:10027000204600F009F900BEFEE74BF6AB6100F046
:100280007DF90028ECD0034B4FF00042DA6202B057
:10029000BDE8F08100ED00E07823000800BEFEE735
:1002A0001EF0040F0CBFEFF30880EFF309807146D6
:1002B000244A10472DE9F04182B004468846084B95
:1002C0005E6B9F6B9D6A074800F082F8CDF8008056
:1002D0003B4632462946204600F0D6F800BEFEE7EF
:1002E00000ED00E0882300081EF0040F0CBFEFF3C0
:1002F0000880EFF309807146134A10472DE9F04159
:1003000082B004468846084B5E6B9F6B9D6A074827
:1003100000F05EF8CDF800803B4632462946204684
:1003200000F0B2F800BEFEE700ED00E09423000804
:1003300000BEFEE700BEFEE700BEFEE7704700001D
:100340003F020008B5020008FD02000800BEFEE7FB
:100350003C260008000000208C0000203C260008FD
:1003600000000000000000008C0000202029002078
:08037000000000000000000085
:10037800FEE7000008B503460C4A12685AB10B4A5A
:100388001068033323F003030344094A934206D851
:10039800064A136008BD054A06491160EFE701F0F7
:1003A80029FB0C2303604FF0FF30F3E79000002097
:1003B800004C00202029002001230360014B0B6022
:1003C800704700BF040000200FB400B583B004AB31
:1003D80053F8042B01938021064801F03DFB0028C7
:1003E80003DD0146034800F037F803B05DF804EB7D
:1003F80004B07047980000202DE9F04385B004460A
:100408000F4643560BB10E461EE0042528462146EA
:10041800ABBE0446384605B0BDE8F08314F9011BAD
:1004280004AA1A4402F8101C0133AB42F6D304AAFA
:100438001344002203F8102C4FF00408E946404604
:100448004946ABBE8046761B002EE3D03546102EBB
:1004580028BF10250023E8E708B5FFF7CDFF08BD42
:1004680008B500F0FDF8024A024B9A6008BD00BFCB
:100478000000000800ED00E008B500F019F908BD1B
:10048800F8B504460D4617461E462748FFF79CFF59
:1004980021682648FFF798FF61682548FFF794FF11
:1004A800A1682448FFF790FFE1682348FFF78CFF15
:1004B80021692248FFF788FF61692148FFF784FF17
:1004C800A1692048FFF780FFE1691F48FFF77CFF1B
:1004D8001E48FFF779FF29461D48FFF775FF1D4C99
:1004E800E16A1D48FFF770FF216B1C48FFF76CFF9E
:1004F800E16B1B48FFF768FF15F0800F0AD115F470
:10050800004F0CD11748FFF75FFF06991648FFF711
:100518005BFFF8BD39461548FFF756FFEFE7314650
:100528001348FFF751FFEDE75C2200086C22000832
:100538007C2200088C2200089C220008AC220008BB
:10054800BC220008CC220008DC220008EC220008AB
:10055800F822000800ED00E008230008182300082E
:1005680028230008582300086023000838230008BF
:100578004823000883691A888A4201D000207047FE
:100588000268033A012A03D80233836101207047C5
:100598000020704782B00023019300932C4A13680F
:1005A80043F4803313602A4B1B6803F40033009331
:1005B800019B01330193009B1BB9019BB3F5A06F0D
:1005C800F1D1234B1B6813F4003F06D0012300939D
:1005D800009B012B04D002B0704700230093F7E77B
:1005E8001C4B1A6842F010021A601A6822F00302C3
:1005F8001A601A6842F002021A60A3F580535A681A
:100608005A605A685A605A6842F480625A605A6856
:1006180022F47C125A605A6842F4E8125A601A6846
:1006280042F080721A600A4B1B6813F0007FFAD000
:10063800074B5A6822F003025A605A6842F00202D5
:100648005A60034B5B6803F00C03082BF9D1C2E72F
:10065800001002400020024008B5FFF79BFF08BDCC
:1006680008B5104B1A6842F001021A6059680E4A20
:100678000A405A601A6822F0847222F480321A60A2
:100688001A6822F480221A605A6822F4FE025A601C
:100698004FF41F029A60FFF7DFFF044B4FF0006230
:1006A8009A6008BD001002400000FFF800ED00E06D
:1006B8001F4B5B6803F00C03042B15D0082B17D0D5
:1006C8001BB11C4B1C4A1A6002E01A4B1A4A1A60EA
:1006D800174B5B68C3F30313184AD35CDAB21549A6
:1006E8000B68D3400B607047124B134A1A60EFE750
:1006F8000F4A53685268C3F38343023312F4803FAE
:100708000AD00B4A526812F4003F0BD00C4A02FB85
:1007180003F3084A1360DBE7094A02FB03F3054ABF
:100728001360D5E7044A02FB03F3024A1360CFE7DC
:10073800001002401C00002000127A000C0000206B
:1007480000093D00014B1860704700BF18010020E8
:1007580008B5034B00221A60024B1B68984708BD76
:1007680000380140180100200A4B45229A60DA68D7
:1007780042F02002DA60DA6842F00802DA60DA68E9
:1007880042F00402DA60DA6842F40052DA600022C9
:100798001A60704700380140002208E006494B60A3
:1007A800054B1B6813F0400FFAD00132D2B28356C2
:1007B800002BF3D1704700BF00380140014B586847
:1007C800C0B2704700380140014B00221A607047E0
:1007D8000038014008B5094B1B6803B19847084B1E
:1007E8001B7833B1074B1A681A6822F480321A60F2
:1007F80008BD044B00225A609A60F9E71C010020EA
:100808001829002010E000E0024A136823F00403CE
:100818001360704710E000E00B4B58601A6822F034
:1008280002021A601A6842F001021A60064B1B683D
:1008380013F4803FFAD0044B1A6822F001021A60C0
:1008480000225A609A60704710E000E0094B1A686D
:1008580022F001021A6000229A6058601A6842F079
:1008680001021A60044A11601A6842F002021A6012
:10087800704700BF10E000E01C010020024B5868E0
:100888009B68C01A704700BF10E000E00138044BB5
:10089800586000229A601A6842F001021A60704794
:1008A80010E000E0044B1A6822F002021A601A688D
:1008B80042EA40001860704710E000E0024B1868F8
:1008C800C0F30040704700BF10E000E010B50446D8
:1008D800FFF79AFF0020FFF7E5FF4FF47A7000FB5F
:1008E80004F0FFF7D3FFFFF7E9FF0028FBD010BDA6
:1008F8000D4B4FF480321A6001225A6000230A4AD5
:10090800126812F4003F05D142F20F72934201D8E7
:100918000133F4E742F20F72934204D9024A136892
:1009280023F4002313607047001002401F291CD8CD
:1009380001280BD010B1022810D070470B4843692A
:10094800012202FA01F11943416170470748C3695E
:10095800012202FA01F11943C16170470348836912
:10096800012202FA01F11943816170470010024027
:10097800164B1A6A42F001021A621A6A22F004023D
:100988001A621A6842F080021A609A6942F04002BC
:100998009A619A6942F020029A619A6922F01002DB
:1009A8009A619A6942F008029A6140F23F629A623B
:1009B8006422DA6202225A635A6942F001025A61D9
:1009C8001A6842F001021A60704700BF0008004030
:1009D800014B5863704700BF00080040014B024AB2
:1009E8001A6070470CED00E00005FA051F2809D9C8
:1009F8003B2806D82038C0B2012303FA00F0044B84
:100A080018607047012303FA00F0024B1860704722
:100A180004E100E000E100E010B4012827D018B19B
:100A2800022847D010BC7047072912D90F29F9D8D6
:100A3800A1F10804E4B22A4B5968A4000F20A04091
:100A480021EA00015960586802FA04F1014359602B
:100A5800E8E7234B186889000F248C4020EA04003B
:100A68001860186802FA01F101431960DAE70729EA
:100A780012D90F29D6D8A1F10800C0B2194B59686C
:100A880080000F24844021EA040159605C6802FA5E
:100A980000F121435960C5E7124B186889000F24FB
:100AA8008C4020EA04001860186802FA01F101433A
:100AB8001960B7E70C29B5D90F29B3D8A1F10803F4
:100AC800DBB2094841689B000F249C4021EA0401DD
:100AD8004160446802FA03F121434160A2E700BF84
:100AE80000080140000C014000100140012817D007
:100AF80010B1022827D07047012A0AD0002A2DD128
:100B08001A48C368012202FA01F123EA0101C1600F
:100B180070471648C36802FA01F11943C16070476B
:100B2800012A09D0D2B91248C368012202FA01F198
:100B380023EA0101C16070470D48C36802FA01F158
:100B48001943C1607047012A09D03AB90948C368F6
:100B5800012202FA01F123EA0101C1607047054848
:100B6800C36802FA01F11943C160704700080140E7
:100B7800000C01400010014001280AD018B10228D9
:100B88000DD000207047094B9868C84000F001005C
:100B98007047074B9868C84000F001007047054B44
:100BA8009868C84000F00100704700BF0008014085
:100BB800000C01400010014010B4164B00221A60CE
:100BC8004FF0FF325A619A68012404FA00F0024398
:100BD8009A60A1420DD039B1022913D00D4B1A6881
:100BE8001043186010BC70470A4A93680343936027
:100BF800F4E7084BDA680243DA609A6822EA0002EE
:100C08009A60EBE7034B9A6802439A60DA680243FA
:100C1800DA60E3E70004014003490B68012202FAA5
:100C280000F003430B6070470004014008B1014A1B
:100C3800106070472001002008B5044B1B689847D6
:100C4800034A536943F00103536108BD20010020A2
:100C58000004014008B5044B1B689847034A5369D0
:100C680043F00103536108BD240100200004014042
:100C780030B4032809D907281CD90B281CD90F28F8
:100C880001D8F72302E0002300E000230B4A0233D7
:100C980052F8234080000F25854024EA050442F8D5
:100CA800234052F8234001FA00F0204342F8230081
:100CB80030BC7047FC23E9E7FA23E7E7000001406E
:100CC800124B9A6842F001029A609A6822F4006214
:100CD8009A601A6942F008021A611A6922F0100231
:100CE8001A611A6922F020021A619A6842F40032E5
:100CF8009A609A6842F480229A609A6842F40022C4
:100D08009A609A6842F480129A6070470024014001
:100D18001F4B1B88A3F115021E498A5C432A14D075
:100D28001C4A92F836202B2A16D01A4A927F2B2A70
:100D380019D01A1F17498A5C4F2A1AD0DA1F154989
:100D48008A5C4F2A1BD000207047A3F114028A5CEA
:100D58004F2AE5D1012070470E4A92F83720492AD8
:100D6800E3D1022070470B4AD27F492AE1D1022001
:100D78007047DA1E8A5C4B2AE0D102207047063B96
:100D8800CB5C4B2B01D0002070470320704700BF7D
:100D9800382800202801002038B5064C2588FFF7A0
:100DA8000DFD054B5855238801332380FFF70CFDB3
:100DB80038BD00BF382800202801002008B5164893
:100DC800FFF7C0FC002007E01448FFF7E5FC1448D3
:100DD800FFF722FDFFF79CFF0028F5D00020114BFC
:100DE800188007E01048FFF7D7FC0D48FFF714FDFF
:100DF800FFF78EFF0028F5D000200A4B188007E087
:100E08000A48FFF7C9FC0648FFF706FDFFF780FF11
:100E18000028F5D008BD00BFA10D00080C2400086B
:100E2800C0C62D00382800201424000824240008F7
:100E380038B505460C4600200C4B188013E00C48CA
:100E4800FFF7AAFC2846FFF7A7FC0A48FFF7A4FC0F
:100E58002046FFF7A1FC0848FFF79EFC0748FFF76C
:100E6800DBFCFFF755FF0028E9D038BD3828002003
:100E7800D8230008F8230008E423000880841E0013
:100E880038B505460C4600200C4B188013E00C487A
:100E9800FFF782FC2846FFF77FFC0A48FFF77CFC37
:100EA8002046FFF779FC0848FFF776FC0748FFF76C
:100EB800B3FCFFF72DFF0028E9D038BD3828002003
:100EC800E8230008FC23000830240008808D5B001C
:100ED80010B50446074B00221A800748FFF75CFC50
:100EE8002046FFF759FC0548FFF756FC0448FFF772
:100EF80093FC10BD38280020002400083024000886
:100F080040420F0038B5054600240F4B1C800F489F
:100F1800FFF782FC204614E00D490E48FFF7B0FFAA
:100F28000D48FFF7D5FF0D48FFF736FC2846FFF7B9
:100F380033FC0B48FFF730FC0A48FFF76DFCFFF75E
:100F4800E7FE0028E8D038BD38280020A086010038
:100F5800A4230008A8230008B8230008BC2300081D
:100F6800C823000840420F0008B509210220FFF7F6
:100F7800DDFC02210846FFF7D9FC002201211046BA
:100F8800FFF74AFDFFF79CFE08BD08B5FFF7B0FC68
:100F980002210120FFF7CAFC03210220FFF7C6FC4B
:100FA80000210220FFF7C2FC0A2206210120FFF7D8
:100FB80033FDFFF7DDFC08BD08B5FFF709FD08BDE7
:100FC80008B5022201210846FFF726FD022200216A
:100FD8000120FFF721FD002201210846FFF786FDC9
:100FE800002211460120FFF781FD08BD08B5012246
:100FF80011461046FFF77AFD08BD08B50022012109
:101008000846FFF773FD08BD08B501220021104608
:10101800FFF76CFD08BD08B5002211460120FFF757
:1010280065FD08BD38B50446FFF7EEFB002209212F
:101038000120FFF75BFD00220A210120FFF756FD82
:1010480004F0F005C5F300120C210120FFF74EFD56
:10105800C5F340120D210120FFF748FDC5F38012AA
:101068000E210120FFF742FDEA090F210120FFF7B9
:101078003DFD01220B211046FFF738FD0120FFF747
:1010880025FC00220B210120FFF730FD0120FFF78E
:101098001DFC2401E4B2C4F300120C210120FFF767
:1010A80025FDC4F340120D210120FFF71FFDC4F3F5
:1010B80080120E210120FFF719FDE2090F210120FE
:1010C800FFF714FD01220B211046FFF70FFD012049
:1010D800FFF7FCFB00220B210120FFF707FD012091
:1010E800FFF7F4FB38BD08B502220C210120FFF7F9
:1010F80093FC02220D210120FFF78EFC02220E2113
:101108000120FFF789FC02220F210120FFF784FC50
:1011180002220B210120FFF77FFC02220921012076
:10112800FFF77AFC02220A210120FFF775FC28202C
:10113800FFF7CCFB0220FFF775FF2820FFF772FFAF
:101148000120FFF7C3FB0C20FFF76CFF0120FFF71E
:10115800BDFB0120FFF766FF0220FFF7B7FB08BDC4
:1011680038B50446012209211046FFF7BFFC0022CA
:101178000A210120FFF7BAFC04F0F005C5F30012BC
:101188000C210120FFF7B2FCC5F340120D2101200C
:10119800FFF7ACFCC5F380120E210120FFF7A6FC77
:1011A800EA090F210120FFF7A1FC01220B211046BB
:1011B800FFF79CFC0120FFF789FB00220B2101208F
:1011C800FFF794FC0120FFF781FB2401E4B2C4F38C
:1011D80000120C210120FFF789FCC4F340120D21F5
:1011E8000120FFF783FCC4F380120E210120FFF7D2
:1011F8007DFCE2090F210120FFF778FC01220B2179
:101208001046FFF773FC0120FFF760FB00220B215B
:101218000120FFF76BFC0120FFF758FB38BD38B5FC
:101228000546002403E0FFF79BFF0134E4B2285D84
:101238000028F8D138BD08B520B14039C8B2FFF749
:10124800F1FE08BD81F08000FFF7ECFEF9E7000031
:101258002DE9F0410026B04623E00134E4B2022C27
:1012680015D8174B1D5D29460020FFF785FC00287F
:10127800F3D129460020FFF77FFC0028F9D004EBC2
:1012880044003044C0B201305FFA80F8E5E701223B
:1012980039461046FFF72AFC0A20FFF717FB0136EC
:1012A800F6B2022E08D8074B9F5D0022394601206E
:1012B800FFF71CFC0024D2E74046BDE8F08100BFE0
:1012C800382400083424000808B50222052101202A
:1012D800FFF7A2FB022207210120FFF79DFB022254
:1012E80008210120FFF798FB012205211046FFF78E
:1012F800FDFB012207211046FFF7F8FB0122082118
:101308001046FFF7F3FB08220B210020FFF784FBB0
:1013180008220C210020FFF77FFB0822114600203D
:10132800FFF77AFB01220B210020FFF7DFFB0122E8
:101338000C210020FFF7DAFB012208210020FFF72B
:10134800D5FB08BD08B5082203210020FFF764FB80
:1013580008BD08B503210020FFF70EFC08BD08B53D
:10136800082202210020FFF757FB08BD08B502211B
:101378000020FFF701FC08BD08B502220621002065
:10138800FFF74AFB08BD08B5012206210020FFF738
:10139800ADFB08BD08B5002206211046FFF7A6FBE5
:1013A80008BD08B5022204210020FFF735FB08BD5F
:1013B80008B5012204210020FFF798FB08BD08B5F5
:1013C800002204211046FFF791FB08BD38B5134BE6
:1013D8001B78012B13D0124B1B78BBB1114C25780D
:1013E800EDB2FFF74BFA104B43F825000F491048B0
:1013F800FFF72CFA23780133DBB2237038BD0120C4
:10140800FFF710FE054B00221A70E4E70749084869
:10141800FFF71CFA024B01221A70EFE720000020A8
:101428000A2900200929002040280020F115000879
:1014380040420F0030B583B000250195154B1B685D
:1014480000932C4600E00134032C12DC02AB234449
:1014580013F8043C002BF6D1FFF7FAFE02AB234445
:1014680003F8040C13F8083C9842EFD10135EDB2AB
:10147800ECE70120FFF7D6FD042D06D0064A1378C5
:1014880001331370002003B030BD0120034B1870E6
:10149800F9E700BF3C2400083D2800203C28002034
:1014A80008B5454B1B78DBB2182B4ED010D9422B10
:1014B80077D022D95A2B6AD05E2B38D1FFF76AFF32
:1014C80000210846FFF7B7FE3C48FFF7A8FE2EE0CC
:1014D8000C2B30D0162B21D0082B28D1FFF739FF41
:1014E800374B187001283AD0364B1B78012B1ED089
:1014F800FFF791FDFFF763FF19E01C2B17D1FFF7EA
:1015080035FF304B1870012835D02D4B1B78012B37
:101518000DD0FFF780FDFFF752FF08E0FFF766FDEB
:1015280000210846FFF787FE2748FFF778FE274B7C
:1015380001221A7008BDFFF760FD00210846FFF779
:101548007AFE2348FFF76BFEF1E7FFF71CFF002147
:101558000846FFF770FE1F48FFF761FEE7E7002126
:101568000846FFF768FE1C48FFF759FEFFF720FF03
:10157800FFF74AFDDBE700210846FFF75CFE174846
:10158800FFF74DFEFFF740FDFFF712FFCFE7FFF72C
:101598003BFD00210846FFF74EFE1148FFF73FFECE
:1015A800C5E7FFF738FD00210846FFF744FE0D4860
:1015B800FFF735FEBBE700BF08290020C825000853
:1015C8003B2800203A280020A825000820000020F9
:1015D800B4250008C0250008D0250008E02500082B
:1015E800F0250008FC25000808B51F4B00221A70DA
:1015F8001E4B1A6842F20F739A422DD91B4B1A6878
:1016080043F2B0639A4227D8002309E0012202FA84
:1016180001F11548027822EA010202700133DBB2B7
:10162800072B17D8194603F11100104A52F8202049
:10163800B2F5FA6FEAD30D4A52F8200040F6FC02E0
:101648009042E3D801229A40074801781143C9B271
:101658000170E3E7FFF724FF0023054A1370034AEC
:101668001360044A137008BD082900204028002090
:101678000A2900200929002008B5FFF739F90221B5
:101688000120FFF753F902210846FFF74FF9092116
:101698000220FFF74BF90E210220FFF747F903213B
:1016A8000220FFF743F904210220FFF73FF9002148
:1016B8000220FFF73BF9082200210846FFF7ACF9A2
:1016C800012200210846FFF711FA00210846FFF71A
:1016D800CFFAFFF783F9FFF797F8FFF771FCFFF7E9
:1016E800F3FDFFF749FEFFF73FFCFFF72BFEFFF77F
:1016F80036FEFFF756FEFFF7F6FC0120FFF792FCD7
:101708008020FFF78FFCFFF740FC0C20FFF754FC0C
:1017180000210846FFF78FFD0F48FFF780FD0220E4
:10172800FFF7D4F801210846FFF785FD0B48FFF7BE
:1017380076FD4FF4FA60FFF7C9F80120FFF772FC55
:101748000748FFF76CFD00210120FFF774FD0548ED
:10175800FFF765FD08BD00BF742500087C2500085B
:10176800842500089425000870B5864B1B78012B4A
:101778001AD0854B1B78022B40F2E680824B1B78EF
:10178800032B00F0F3808148FFF749FD0021012079
:10179800FFF751FD7E48FFF742FD7A4B00221A7091
:1017A8000C20FFF709FC70BD7A4B1B78012B2DD05C
:1017B8007948FFF7A7FB0023784AD25C0133DBB2F4
:1017C8003A2AF9D1754AD15C581C165C981C155CEC
:1017D8000333D45C30294ED0312956D0322E5ED016
:1017E800332E66D0342D6ED0352D00F08780362C00
:1017F80000F0A080372CD6D1FFF70DFC0021084659
:10180800FFF719FD6648FFF70AFDCCE70220FFF74E
:101818005DF80120FFF706FC6248FFF700FD0A2289
:1018280009210020FFF7F8F804220A210020FFF719
:10183800F3F82520FFF7DAF8FEF796FFFFF7BEFA70
:1018480059495A48FFF7F4FA0120FFF7EBFB5848CB
:10185800FFF7E5FC5748FFF7E9F901210020FFF7FA
:10186800ABF90020FFF7D8F90620FFF7BFF8494B7E
:1018780000221A709CE7FFF7B9FB00210846FFF722
:10188800DAFC4D48FFF7CBFCA8E7FFF7B6FB0021D1
:101898000846FFF7D0FC4948FFF7C1FC9EE7FFF771
:1018A80072FD00210846FFF7C6FC4548FFF7B7FC64
:1018B80098E7FFF76FFD00210846FFF7BCFC414899
:1018C800FFF7ADFC8EE7FFF744FD3F4B187001288A
:1018D80008D03E4B1B78012B89D0FFF79CFBFFF704
:1018E8006EFD84E700210846FFF7A5FC3848FFF79E
:1018F80096FCFFF75DFDFFF787FB78E7FFF736FDFE
:10190800324B1870012809D02F4B1B78012B3FF45C
:101918006EAFFFF780FBFFF752FD68E7002108462E
:10192800FFF789FC2B48FFF77AFCFFF76DFBFFF701
:101938003FFD5CE7FFF768FB00210846FFF77BFCEB
:101948002548FFF76CFC2EE7FFF774FD00283FF4ED
:1019580015AF01240B4B1C702046FFF763FB1F4893
:10196800FFF75DFC2046FFF727FB1CE71C48FFF745
:1019780056FC00210120FFF75EFC1A48FFF74FFCD8
:1019880011E700BF0B2900203D280020582500083A
:10199800682500083C2800207C2400082801002035
:1019A8001C25000840240008502400086024000872
:1019B8006C240008D513000890240008A42400080B
:1019C800B8240008CC2400083B2800203A2800202E
:1019D800E0240008F4240008082500082C25000845
:1019E800382500084425000808B5FFF745FEFFF72D
:1019F800BBFEFCE7014B1868704700BF24000020BD
:101A080030B5141E05469BB0184605DA8B234FF0F7
:101A1800FF302B601BB030BD4FF40273ADF80C30B3
:101A28000CBF234604F1FF33029305934FF6FF736F
:101A380000910491ADF80E3002461E9B6946284677
:101A480000F072F8431CBCBF8B232B60002CE1D044
:101A58000022009B1A70DDE707B5009313460A467B
:101A6800014603480068FFF7CBFF03B05DF804FBAD
:101A7800240000202DE9F0478E6882469E420C46DD
:101A88009046994637D88A8912F4906F31D002234C
:101A9800256809696F1A656905EB450595FBF3F536
:101AA80009F101033B449D4238BF1D46530530D51B
:101AB800294600F035FB064650B90C234FF0FF309D
:101AC800CAF80030A38943F04003A381BDE8F0873A
:101AD8003A46216900F0B4FAA38923F4906343F0ED
:101AE8008003A38126613E4426604E466561ED1B56
:101AF800A5604E4500D94E4632464146206800F062
:101B0800AAFAA36800209B1BA36023681E442660D2
:101B1800DCE72A4600F05EFB06460028E2D1216990
:101B2800504600F0B1FAC8E72DE9F04F9DB0039395
:101B38008B8980461D060C4616460FD50B696BB976
:101B4800402100F0EDFA2060206128B90C23C8F884
:101B580000304FF0FF30C7E0402363610023099352
:101B680020238DF8293030234FF0010B8DF82A30CF
:101B780037463D4615F8013B0BB1252B3ED1B7EB57
:101B8800060A0BD05346324621464046FFF772FFFD
:101B9800013000F0A480099B534409933B78002B43
:101BA80000F09D8000234FF0FF32CDE90523049318
:101BB80007938DF853301A932F46052217F8011B07
:101BC8004F4800F02FFA049BD0B9D90644BF202211
:101BD8008DF853201A0744BF2B228DF853202A78FA
:101BE8002A2A15D02F4600200A25079A394611F8C7
:101BF800013B303B092B4DD9B8B10FE02F46B8E770
:101C08003F4A3D46801A0BFA00F018430490D3E788
:101C1800039A111D12680391002A01DB079204E060
:101C2800524243F00203079204933B782E2B0CD1C7
:101C38007B782A2B33D1039B02371A1D1B6803922A
:101C4800002BB8BF4FF0FF3305932E4D0322397890
:101C5800284600F0E7F938B14023401B03FA00F0AA
:101C6800049B0137034304933978062226487E1CD7
:101C78008DF8281000F0D6F9002838D0234B13BB74
:101C8800039B073323F0070308330393099B4B4453
:101C980009936DE705FB023201200F46A6E70023F2
:101CA8000A25194601370593384610F8012B303AB2
:101CB800092A03D9002BC8D00591C6E705FB0121E5
:101CC80001230746F0E703AB00932246104B04A913
:101CD8004046AFF30080B0F1FF3F8146D6D1A389DB
:101CE8005B063FF536AF09981DB0BDE8F08F03AB32
:101CF80000932246064B04A9404600F081F8EAE723
:101D0800082600080E260008122600080000000019
:101D18007D1A00082DE9F04791461F468A680B692D
:101D280006469342B8BF1346C9F8003091F84320DD
:101D38000C46DDF8208012B10133C9F80030236861
:101D4800990642BFD9F800300233C9F80030256837
:101D580015F0060507D104F1190AE368D9F800203F
:101D68009B1AAB4229DC94F843302268003318BF31
:101D7800012392062ED404F1430239463046C04767
:101D8800013021D02368E56803F00603042B18BF4F
:101D98000025D9F800204FF0000908BFAD1AA36844
:101DA800226908BF25EAE5759342C4BF9B1AED185E
:101DB8001A344D451AD1002008E00123524639460D
:101DC8003046C047013003D14FF0FF30BDE8F087FF
:101DD8000135C2E73020E11881F843005A1C94F815
:101DE80045102244023382F84310C4E701232246F7
:101DF80039463046C0470130E6D009F10109D8E735
:101E08002DE9F04301F1430C0C46097E85B06E299B
:101E18001746064698460C9A00F0B38022D86329E4
:101E280036D00AD8002900F0B980582900F08380FC
:101E380004F1420584F8421032E0642901D069298E
:101E4800F6D120681368050603F104012AD51B683A
:101E58001160002B03DA2D225B4284F843206F487F
:101E68000A2239E0732900F09D8008D86F2920D014
:101E78007029DDD1236843F02003236003E075292E
:101E880017D07829D4D17823654884F8453055E0AF
:101E9800136804F14205191D1B68116084F842306B
:101EA80001238CE01B6810F0400F116018BF1BB2B3
:101EB800CFE713682568181D1060280601D51B6830
:101EC80002E06806FBD51B886F2914BF0A22082286
:101ED8005248002184F843106568002DA560C0F2BF
:101EE8009580216821F004012160002B3DD1002D4F
:101EF80040F08E806546082A0BD12368DB0708D599
:101F0800236962689A42DEBF302305F8013C05F177
:101F1800FF35ACEB05032361CDF800803B4603AAEF
:101F280021463046FFF7F6FE01304DD14FF0FF3025
:101F380005B0BDE8F083394884F845101368216876
:101F48001D1D1B6815600A060BD5CA0744BF41F062
:101F5800200121601BB9226822F020022260102291
:101F6800B7E74D0648BF9BB2EFE76546B3FBF2F112
:101F780002FB1133C35C05F8013D0B460029F5D17E
:101F8800B9E713682568181D6169106028061B6881
:101F980001D5196002E06A06FBD519800023654661
:101FA8002361B9E71368191D11601D686268002173
:101FB800284600F037F808B1401B60606368236169
:101FC800002384F84330A7E723692A463946304678
:101FD800C0470130AAD023689B0713D4E068039B4D
:101FE8009842B8BF1846A3E701234A463946304607
:101FF800C04701309AD00135E368039A9B1AAB4277
:10200800F2DCEBE7002504F11909F5E7002BACD168
:10201800037804F1420584F842306CE71926000879
:102028002A26000810B5C9B202449042034601D1DD
:10203800002303E01C7801308C42F6D1184610BD0D
:1020480010B5431E0A44914200D110BD11F8014B4E
:1020580003F8014FF7E7884210B501EB020307D8F0
:10206800421E99420AD011F8014B02F8014FF8E7D5
:102078008342F5D98118D21AD34200D110BD13F882
:10208800014D01F8014DF7E738B50546002943D061
:1020980051F8043C0C1F002BB8BFE41800F0D0F82E
:1020A8001E4A1368104633B9636014602846BDE8B9
:1020B800384000F0C6B8A3420BD921686218934291
:1020C80001BF1A685B685218226063600460EDE71C
:1020D80013465A680AB1A242FAD919685818A04298
:1020E8000BD120680144581882421960DED110686B
:1020F8005268014419605A60D8E702D90C232B6052
:10210800D4E7206821188A4201BF1168526809186B
:10211800216062605C60C9E738BD00BF0C290020FF
:1021280070B5CD1C25F0030508350C2D38BF0C25DE
:10213800002D064601DBA94203D90C233360002099
:1021480070BD00F07DF8214A1468214691B9204CF1
:1021580023681BB9304600F063F8206029463046F2
:1021680000F05EF8431C24D10C233046336000F0A5
:1021780068F8E4E70B685B1B18D40B2B0FD90B60CE
:10218800CC18CD50304600F05CF804F10B00231D4C
:1021980020F00700C31AD3D05A42E250D0E74B6868
:1021A8008C4216BF636013600C46EBE70C46496827
:1021B800CCE7C41C24F00304A04205D0211A304601
:1021C80000F02EF80130CFD02560DBE70C29002085
:1021D80010290020F8B5074614460E4621B9BDE877
:1021E800F8401146FFF79CBF22B9FFF74DFF25467F
:1021F8002846F8BD00F026F8A0420FD221463846FE
:10220800FFF78EFF05460028F2D031462246FFF739
:1022180017FF31463846FFF737FFE9E73546E7E766
:1022280038B50023054C054608462360FEF7A2F89A
:10223800431C02D1236803B12B6038BD1429002048
:102248007047704751F8043C181F002BBCBF0B584F
:10225800C0187047537461636B206672616D653A8C
:102268000A000000205230203D2020253038580A2E
:1022780000000000205231203D2020253038580A27
:1022880000000000205232203D2020253038580A16
:1022980000000000205233203D2020253038580A05
:1022A8000000000020523132203D20253038580AE5
:1022B80000000000204C52203D2020253038580ACC
:1022C80000000000205043203D2020253038580AC7
:1022D8000000000020505352203D20253038580A75
:1022E800000000004653522F4641523A0A000000AF
:1022F8002043465352203D2020253038580A0000FC
:102308002048465352203D2020253038580A0000E6
:102318002044465352203D2020253038580A0000DA
:102328002041465352203D2020253038580A0000CD
:10233800204D4D464152203D20253038580A000096
:102348002042464152203D2020253038580A0000BE
:102358004D6973630A000000204C522F4558435FB3
:1023680052455455524E3D20253038580A00000039
:102378005B486172644661756C745D0A0000000018
:102388005B4275734661756C745D0A005B557361D9
:1023980067654661756C745D0A000000383000009E
:1023A8003136322E3235332E3135352E3232360033
:1023B8003433000047455420687474703A2F2F0056
:1023C8002F6275666665722E7478740D0A000000B7
:1023D80041542B43574A41503D220000220D0A0028
:1023E80041542B43495053544152543D2254435075
:1023F800222C2200222C000041542B4349505345E3
:102408004E443D0041540D0A0000000041542B4346
:10241800574D4F44453D330D0A00000041542B43AE
:1024280049504D4F44453D300D0A0000050708004E
:102438000B0C0800020304055374617274696E671B
:102448002053797374656D003235313240576946CF
:102458006939372A31353200456C736F75647920D4
:1024680032000000436F6E6E6563746564203E3E03
:102478003E0000006162616E6F75622E667265656E
:102488007661722E636F6D004C65645F31204F4E2C
:102498002020202020202020000000004C65645FC0
:1024A80031204F4646202020202020200000000018
:1024B80046616E204F4E2020202020202020202002
:1024C8000000000046616E204F4646202020202054
:1024D80020202020000000004761732044657465B7
:1024E800637465642021202000000000466972653D
:1024F8002044657465637465642021200000000031
:102508004E6577204C6564204F4E202020202020E7
:10251800000000004E6577204C6564204F46462039
:1025280020202000556E6C6F636B6564000000000E
:102538004D6178204578656564656400526573650A
:10254800742053797374656D2020202020000000CA
:1025580057726F6E672050617373776F72642000D3
:1025680054727920416761696E203A0048656C6C45
:102578006F00000054686572650000005359535499
:10258800454D204C4F434B4544000000456E746553
:10259800722050617373776F7264203A20000000D4
:1025A8004C65645F31204F4E000000004C65645F4D
:1025B80031204F464600000046616E204F4E000015
:1025C80046616E204F464600476173204465746536
:1025D800637465642021000046697265204465744F
:1025E80065637465642021004E6577204C6564201E
:1025F8004F4E00004E6577204C6564204F464600DC
:10260800232D302B2000686C4C00656667454647D3
:102618000030313233343536373839414243444556
:1026280046003031323334353637383961626364C5
:03263800656600D4
:10263C0078563412940000200000000000000000C6
:10264C0000000000010203040607080900A24A0466
:10265C0001FFFFFF28000020000000000000000028
:10266C00000000000000000000000000000000005E
:10267C00000000000000000000000000000000004E
:10268C00000000000000000000000000000000003E
:10269C00000000000000000000000000000000002E
:1026AC00000000000000000000000000000000001E
:0C26BC000000000000000000325476987E
:040000050800010DE1
:00000001FF
