:100000000C942A000C9401090C9434090C944409B2
:100010000C9447000C9447000C9447000C94470044
:100020000C9447000C9447000C9447000C949407E0
:100030000C9447000C9447000C9447000C94470024
:100040000C9447000C9447000C9447000C94470014
:100050000C94470011241FBECFE5D8E0DEBFCDBF12
:1000600011E0A0E6B0E0E8ECFDE402C005900D92DE
:10007000AA3FB107D9F712E0AAEFB1E001C01D9283
:10008000A930B107E1F70E942E260C94E2260C94C9
:100090000000EF92FF920F931F937B018C0120E0F1
:1000A00030E040E05FE40E94F50388238CF0C80153
:1000B000B70120E030E040E05FE40E94C1010E940F
:1000C00055049B01AC01205030404040504806C0D0
:1000D000C801B7010E9455049B01AC01B901CA01D6
:1000E0001F910F91FF90EF900895A0E0B0E0EBE733
:1000F000F0E00C94AB26DC012B01FA019C919230CC
:1001000008F439C1EB018881823008F433C194309E
:1001100069F4843009F02FC111969C91119789815F
:10012000981709F428C1A2EFB0E025C1843009F482
:1001300021C18230A9F4923009F01DC19A01AD01AC
:1001400088E0EA010990AE01E90109929E0181501F
:10015000C1F7E201898111969C918923818308C1AD
:10016000923009F407C112962D903C901397EB0141
:100170008A819B811496AD90BD90CD90DC901797AD
:10018000EC80FD800E811F819101281B390BB90184
:1001900037FF04C066277727621B730B6032710537
:1001A0000CF061C0121613066CF537014801062EDB
:1001B00004C096948794779467940A94D2F721E0C8
:1001C00030E040E050E004C0220F331F441F551FB1
:1001D0006A95D2F721503040404050402E213F21B7
:1001E00040235123211531054105510521F021E01E
:1001F00030E040E050E079018A01E628F72808293C
:1002000019293CC0232BD1F1260E371E350146019A
:10021000062E04C096948794779467940A94D2F734
:1002200021E030E040E050E004C0220F331F441FC3
:10023000551F6A95D2F721503040404050402A2146
:100240003B214C215D21211531054105510521F04E
:1002500021E030E040E050E059016A01A628B728CB
:10026000C828D9280BC0821593052CF01C01AA249C
:10027000BB24650103C0EE24FF24870111969C91E5
:10028000D20111968C91981709F445C0992339F041
:10029000A80197012A193B094C095D0906C0A6016E
:1002A00095012E193F09400B510B57FD08C01182D3
:1002B0003382228224833583468357831DC081E0A5
:1002C00081833382228288279927DC01821B930B4A
:1002D000A40BB50B84839583A683B7830DC0220F2F
:1002E000331F441F551F24833583468357838281E0
:1002F000938101979383828324813581468157813D
:10030000DA01C9010197A109B1098F5F9F4FAF4F72
:10031000BF4328F30BC0918333822282EA0CFB1C7B
:100320000C1D1D1DE482F5820683178383E0808304
:10033000248135814681578157FF1AC0C901AA27F8
:1003400097FDA095BA2F81709070A070B0705695EF
:10035000479537952795822B932BA42BB52B848318
:100360009583A683B7838281938101969383828349
:10037000DF0101C0D201CD01CDB7DEB7E2E10C94BF
:10038000C726A0E2B0E0E7ECF1E00C94B726698361
:100390007A838B839C832D833E834F835887E9E048
:1003A000EE2EF12CEC0EFD1ECE010196B7010E943F
:1003B00046068E010F5E1F4FCE010596B8010E94C2
:1003C00046068A8991E089278A8BC701B801AE0168
:1003D000475E5F4F0E9475000E947105A096E6E09F
:1003E0000C94D326A0E2B0E0E8EFF1E00C94B7263D
:1003F00069837A838B839C832D833E834F835887C5
:10040000F9E0EF2EF12CEC0EFD1ECE010196B701A6
:100410000E9446068E010F5E1F4FCE010596B80161
:100420000E944606C701B801AE01475E5F4F0E94B9
:1004300075000E947105A096E6E00C94D326A0E218
:10044000B0E0E5E2F2E00C94AB2669837A838B831B
:100450009C832D833E834F835887CE010196BE0136
:10046000675F7F4F0E944606CE010596BE016F5E14
:100470007F4F0E9446069985923088F089898230A4
:10048000C8F0943019F4823051F404C0843029F457
:10049000923081F482EF90E0C6C0923049F420E0BF
:1004A0009A858A89981321E02A87CE010996BBC0D4
:1004B000823049F420E09A858A89981321E02A8BBA
:1004C000CE014196B0C02D843E844F8458886D88FB
:1004D0007E888F88988CEE24FF248701AA24BB2471
:1004E000650140E050E060E070E0E0E0F0E0C10174
:1004F00081709070892BE9F0E60CF71C081D191D1E
:100500009A01AB012A0D3B1D4C1D5D1D80E090E062
:10051000A0E0B0E0E614F7040805190520F481E036
:1005200090E0A0E0B0E0BA01A901480F591F6A1F8E
:100530007B1FAA0CBB1CCC1CDD1C97FE08C081E0F5
:1005400090E0A0E0B0E0A82AB92ACA2ADB2A3196B6
:10055000E032F10549F0660C771C881C991C569412
:10056000479437942794C3CFFA85EA892B893C892D
:100570008B859C85280F391F2E5F3F4F17C0CA01FE
:1005800081709070892B61F016950795F794E79428
:1005900080E090E0A0E0B0E8E82AF92A0A2B1B2BC3
:1005A00076956795579547952F5F3F4F77FDE7CF36
:1005B0000CC0440F551F661F771F17FD4160EE0CDE
:1005C000FF1C001F111F21503040403090E05907A0
:1005D00090E0690790E4790760F32B8F3C8FDB0193
:1005E000CA018F779070A070B07080349105A1051A
:1005F000B10561F447FD0AC0E114F10401051105DC
:1006000029F0405C5F4F6F4F7F4F40781A8EFE1786
:1006100011F081E08A8F4D8F5E8F6F8F78A383E01A
:10062000898FCE0149960E947105A096E2E10C9453
:10063000C726A8E1B0E0EFE1F3E00C94B3266983AC
:100640007A838B839C832D833E834F835887B9E0C5
:10065000EB2EF12CEC0EFD1ECE010196B7010E948F
:1006600046068E010F5E1F4FCE010596B8010E940F
:1006700046062985223008F47EC03989323010F4CC
:10068000B8017CC08A859A8989278A87243011F02D
:10069000223031F4231709F06EC062EF70E06EC0B3
:1006A000343039F41D861E861F86188A1C861B86E8
:1006B00004C0323021F484E08987B7015FC02B8504
:1006C0003C858B899C89281B390B3C872B87ED84C3
:1006D000FE840F851889AD88BE88CF88D88CEA142F
:1006E000FB040C051D0540F4EE0CFF1C001F111F40
:1006F000215030403C872B8720E030E040E050E044
:1007000080E090E0A0E0B0E460E070E0EA14FB0478
:100710000C051D0540F0282B392B4A2B5B2BEA18C2
:10072000FB080C091D09B695A79597958795EE0CC2
:10073000FF1C001F111F6F5F7F4F6F31710531F775
:10074000DA01C9018F779070A070B0708034910584
:10075000A105B10561F427FD0AC0E114F10401050A
:10076000110529F0205C3F4F4F4F5F4F20782D87B8
:100770003E874F87588BBE01675F7F4FCB010E943A
:1007800071056896EAE00C94CF26A8E1B0E0EBECA6
:10079000F3E00C94B72669837A838B839C832D8343
:1007A0003E834F83588789E0E82EF12CEC0EFD1E26
:1007B000CE010196B7010E9446068E010F5E1F4FC3
:1007C000CE010596B8010E9446068985823040F028
:1007D0008989823028F0C701B8010E94BE0601C095
:1007E0008FEF6896E6E00C94D326A8E1B0E0EBEF3B
:1007F000F3E00C94B72669837A838B839C832D83E3
:100800003E834F83588789E0E82EF12CEC0EFD1EC5
:10081000CE010196B7010E9446068E010F5E1F4F62
:10082000CE010596B8010E9446068985823040F0C7
:100830008989823028F0C701B8010E94BE0601C034
:100840008FEF6896E6E00C94D326A8E1B0E0EBE2E7
:10085000F4E00C94B72669837A838B839C832D8381
:100860003E834F83588789E0E82EF12CEC0EFD1E65
:10087000CE010196B7010E9446068E010F5E1F4F02
:10088000CE010596B8010E9446068985823040F067
:100890008989823028F0C701B8010E94BE0601C0D4
:1008A00081E06896E6E00C94D326ACE0B0E0EBE59E
:1008B000F4E00C94BB2669837A838B839C83CE01FE
:1008C0000196BE016B5F7F4F0E9446068D8182308C
:1008D00061F1823050F1843021F48E81882351F10E
:1008E0002EC02F81388537FD20C06E812F31310514
:1008F0001CF06623F9F023C08EE190E0821B930B7D
:1009000029853A854B855C8504C056954795379572
:1009100027958A95D2F76623B1F05095409530958A
:1009200021953F4F4F4F5F4F0EC020E030E040E039
:1009300050E009C02FEF3FEF4FEF5FE704C020E02A
:1009400030E040E050E8B901CA012C96E2E00C9496
:10095000D726A8E0B0E0EFEAF4E00C94B3267B01E0
:100960008C01611571058105910519F482E0898377
:1009700060C083E089838EE1C82ED12CDC82CB82DB
:10098000ED82FE820F831887C801B7010E942205FD
:10099000FC013197F7FF3BC0222733272E1B3F0B6B
:1009A00057016801022E04C0D694C794B794A79447
:1009B0000A94D2F740E050E060E070E081E090E01F
:1009C000A0E0B0E004C0880F991FAA1FBB1F2A95A2
:1009D000D2F70197A109B1098E219F21A023B1234C
:1009E0000097A105B10521F041E050E060E070E022
:1009F0004A295B296C297D294D835E836F83788723
:100A00008EE190E08E1B9F0B9C838B8312C03097EE
:100A100081F00E2E04C0EE0CFF1C001F111F0A9463
:100A2000D2F7ED82FE820F831887CE1ADF0ADC82AE
:100A3000CB821A82CE0101960E9471052896EAE0C7
:100A40000C94CF26EF92FF920F931F937B018C01A2
:100A500080E0E81680E0F80681E0080780E01807EB
:100A600088F48FEFE816F1040105110531F028F044
:100A700088E090E0A0E0B0E017C080E090E0A0E067
:100A8000B0E012C080E0E81680E0F80680E00807D9
:100A900081E0180728F088E190E0A0E0B0E004C011
:100AA00080E190E0A0E0B0E020E230E040E050E003
:100AB000281B390B4A0B5B0B04C016950795F7945E
:100AC000E7948A95D2F7F701E650FF4F8081281B03
:100AD000310941095109C9011F910F91FF90EF9010
:100AE0000895DF92EF92FF920F931F93FC01E48031
:100AF000F58006811781D1808081823048F480E0C2
:100B000090E0A0E1B0E0E82AF92A0A2B1B2BA5C04F
:100B1000843009F49FC0823021F4EE24FF24870141
:100B200005C0E114F1040105110519F4E0E0F0E05D
:100B300096C0628173819FEF623879070CF05BC0C9
:100B400022E83FEF261B370B2A3131052CF020E03D
:100B500030E040E050E02AC0B801A701022E04C0F6
:100B600076956795579547950A94D2F781E090E07E
:100B7000A0E0B0E004C0880F991FAA1FBB1F2A95F0
:100B8000D2F70197A109B1098E219F21A023B1239A
:100B90000097A105B10521F081E090E0A0E0B0E070
:100BA0009A01AB01282B392B4A2B5B2BDA01C901A7
:100BB0008F779070A070B07080349105A105B10559
:100BC00039F427FF09C0205C3F4F4F4F5F4F04C0EF
:100BD000215C3F4F4F4F5F4FE0E0F0E02030A0E05E
:100BE0003A07A0E04A07A0E45A0710F0E1E0F0E07D
:100BF00079018A0127C06038710564F5FB01E1586D
:100C0000FF4FD801C7018F779070A070B07080340B
:100C10009105A105B10539F4E7FE0DC080E490E02F
:100C2000A0E0B0E004C08FE390E0A0E0B0E0E80E08
:100C3000F91E0A1F1B1F17FF05C016950795F7948D
:100C4000E794319687E016950795F794E7948A958F
:100C5000D1F705C0EE24FF248701EFEFF0E06E2FFF
:100C6000679566276795902F9F77D794DD24D79453
:100C70008E2F8695492F462B582F5D29B701CA0123
:100C80001F910F91FF90EF90DF900895FC01DB0121
:100C9000408151812281622F6F7770E0221F2227CD
:100CA000221F9381892F880F822B282F30E0991FD4
:100CB0009927991F11969C93119721153105A9F534
:100CC000411551056105710511F482E037C082E8D4
:100CD0009FEF13969C938E9312979A01AB0167E056
:100CE000220F331F441F551F6A95D1F783E08C9361
:100CF0000DC0220F331F441F551F12968D919C91DA
:100D00001397019713969C938E931297203080E04F
:100D1000380780E0480780E4580758F314962D936D
:100D20003D934D935C93179708952F3F310579F4C8
:100D3000411551056105710519F484E08C930895FE
:100D400064FF03C081E08C9312C01C9210C02F5727
:100D5000304013963C932E93129783E08C9387E058
:100D6000440F551F661F771F8A95D1F7706414963C
:100D70004D935D936D937C93179708951F93DC01BA
:100D8000FB019C91923008F447C08081823008F4C6
:100D900043C0943051F411961C91843099F58181AF
:100DA000682F70E0611B71093FC0843021F09230E0
:100DB00031F48230B9F18181882389F12DC01196F7
:100DC0001C9111978230F1F081811817D9F4129695
:100DD0002D913C911397828193818217930794F010
:100DE00028173907BCF014968D919D910D90BC91F8
:100DF000A02D2481358146815781281739074A075C
:100E00005B0718F4112341F00AC082179307A40767
:100E1000B50740F4112319F061E070E005C06FEFF1
:100E20007FEF02C060E070E0CB011F910895DF9377
:100E3000CF93CDB7DEB7AEE4B0E0EEE4F0E0808172
:100E40008E7F8C93AEE4B0E0EEE4F0E080818D7FA5
:100E50008C93AEE4B0E0EEE4F0E0808184608C93AB
:100E6000CF91DF910895DF93CF93CDB7DEB7AFE495
:100E7000B0E0EFE4F0E080818E7F8C93AFE4B0E0EF
:100E8000EFE4F0E0808182608C93AEE4B0E0EEE4C9
:100E9000F0E0808188608C93AEE4B0E0EEE4F0E0B6
:100EA000808180618C93E6E4F0E080E792E09183BA
:100EB0008083CF91DF910895DF93CF93CDB7DEB7D5
:100EC000AFE4B0E0EFE4F0E080818F7B8C93AFE49F
:100ED000B0E0EFE4F0E0808180688C93CF91DF9107
:100EE0000895DF93CF93CDB7DEB70E9417070E9416
:100EF00033070E945C07CF91DF910895DF93CF9372
:100F000000D0CDB7DEB79A838983ECE4F0E011829C
:100F10001082EAE4F0E089819A81918380830F90C6
:100F20000F90CF91DF9108951F920F920FB60F92FD
:100F300011242F933F934F935F936F937F938F93DE
:100F40009F93AF93BF93EF93FF93DF93CF93CDB76F
:100F5000DEB78091FA019091FB0101969093FB011D
:100F60008093FA018091FA019091FB012FE0823485
:100F7000920769F4E2E5F0E080EC8083E091FD0106
:100F8000F091FE0109951092FB011092FA01CF91A8
:100F9000DF91FF91EF91BF91AF919F918F917F91E1
:100FA0006F915F914F913F912F910F900FBE0F90D6
:100FB0001F901895DF93CF9300D0CDB7DEB79A83FB
:100FC000898389819A819093FE018093FD010F901E
:100FD0000F90CF91DF910895DF93CF93CDB7DEB718
:100FE0000E9462090E940A080E942608E2E5F0E0D9
:100FF00080EC80830E945409A9E5B0E0E9E5F0E0C7
:10100000808181608C930E943B080E945008CF91A0
:10101000DF910895DF93CF93CDB7DEB7A3E5B0E0BE
:10102000E3E5F0E080818E7F8C93A3E5B0E0E3E51B
:10103000F0E0808182608C93A3E5B0E0E3E5F0E02E
:1010400080818B7F8C93CF91DF910895DF93CF9335
:10105000CDB7DEB7A3E5B0E0E3E5F0E08081877FC0
:101060008C93A3E5B0E0E3E5F0E080818F7B8C9387
:10107000CF91DF910895DF93CF93CDB7DEB7A3E58E
:10108000B0E0E3E5F0E080818F7E8C93A3E5B0E0F3
:10109000E3E5F0E080818F7D8C93CF91DF9108951F
:1010A000DF93CF93CDB7DEB7A3E5B0E0E3E5F0E0A3
:1010B00080818F7E8C93A3E5B0E0E3E5F0E0808152
:1010C0008F7D8C93CF91DF910895DF93CF93CDB730
:1010D000DEB7A5E5B0E0E5E5F0E0808182608C93C5
:1010E000A5E5B0E0E5E5F0E080818E7F8C9383E0BC
:1010F00062E040E00E94700983E062E041E00E940B
:10110000700AA5E5B0E0E5E5F0E0808188608C93A9
:10111000A5E5B0E0E5E5F0E080818B7F8C93A4E568
:10112000B0E0E4E5F0E080818F7B8C93CF91DF919C
:101130000895DF93CF93CDB7DEB7ABE5B0E0EBE535
:10114000F0E0808180648C930E945409CF91DF91FC
:101150000895DF93CF93CDB7DEB7ABE5B0E0EBE515
:10116000F0E080818F7B8C93CF91DF910895DF93A6
:10117000CF93CDB7DEB7ABE5B0E0EBE5F0E0808133
:1011800080688C93CF91DF910895DF93CF93CDB793
:10119000DEB7ABE5B0E0EBE5F0E080818F778C93D4
:1011A000CF91DF910895DF93CF93CDB7DEB7ABE555
:1011B000B0E0EBE5F0E0808180628C93CF91DF912D
:1011C0000895DF93CF93CDB7DEB7ABE5B0E0EBE5A5
:1011D000F0E080818F7D8C93CF91DF910895DF9334
:1011E000CF9300D0CDB7DEB79A83898389819A8166
:1011F000909300028093FF010F900F90CF91DF91A9
:1012000008951F920F920FB60F9211242F933F93C0
:101210004F935F936F937F938F939F93AF93BF93FE
:10122000EF93FF93DF93CF93CDB7DEB78091FF01AC
:1012300090910002009729F0E091FF01F0910002E7
:101240000995CF91DF91FF91EF91BF91AF919F9160
:101250008F917F916F915F914F913F912F910F905F
:101260000FBE0F901F9018951F920F920FB60F92FE
:101270001124DF93CF93CDB7DEB7CF91DF910F90DD
:101280000FBE0F901F9018951F920F920FB60F92DE
:101290001124DF93CF93CDB7DEB7CF91DF910F90BD
:1012A0000FBE0F901F901895DF93CF93CDB7DEB789
:1012B000AFE5B0E0EFE5F0E0808180688C93CF91FE
:1012C000DF910895DF93CF93CDB7DEB7AFE5B0E000
:1012D000EFE5F0E080818F778C93CF91DF910895D7
:1012E000DF93CF93CDB7DEB727970FB6F894DEBF65
:1012F0000FBECDBF89836A834B838B81813009F018
:101300006FC08981282F30E03F832E838E819F819B
:101310008130910549F12E813F81223031052CF435
:101320008E819F81009761F0D2C02E813F81223053
:10133000310571F18E819F8183309105E9F1C7C03C
:10134000AAE3B0E0EAE3F0E08081482F8A81282F09
:1013500030E081E090E0022E02C0880F991F0A94CD
:10136000E2F7842B8C93B3C0A7E3B0E0E7E3F0E0AF
:101370008081482F8A81282F30E081E090E0022E82
:1013800002C0880F991F0A94E2F7842B8C939FC0A8
:10139000A4E3B0E0E4E3F0E08081482F8A81282FC5
:1013A00030E081E090E0022E02C0880F991F0A947D
:1013B000E2F7842B8C938BC0A1E3B0E0E1E3F0E093
:1013C0008081482F8A81282F30E081E090E0022E32
:1013D00002C0880F991F0A94E2F7842B8C9377C080
:1013E0008B81882309F073C08981282F30E03D83E9
:1013F0002C838C819D818130910559F12C813D8117
:10140000223031052CF48C819D81009769F05FC0FA
:101410002C813D812230310589F18C819D81833081
:10142000910509F440C053C0AAE3B0E0EAE3F0E05C
:101430008081482F8A81282F30E081E090E0022EC1
:1014400002C0880F991F0A94E2F7809584238C9339
:101450003EC0A7E3B0E0E7E3F0E08081482F8A8157
:10146000282F30E081E090E0022E02C0880F991F03
:101470000A94E2F7809584238C9329C0A4E3B0E01A
:10148000E4E3F0E08081482F8A81282F30E081E07A
:1014900090E0022E02C0880F991F0A94E2F780950F
:1014A00084238C9314C0A1E3B0E0E1E3F0E08081F9
:1014B000482F8A81282F30E081E090E0022E02C080
:1014C000880F991F0A94E2F7809584238C932796BE
:1014D0000FB6F894DEBF0FBECDBFCF91DF91089558
:1014E000DF93CF93CDB7DEB727970FB6F894DEBF63
:1014F0000FBECDBF89836A834B838B81813009F016
:101500006FC08981282F30E03F832E838E819F8199
:101510008130910549F12E813F81223031052CF433
:101520008E819F81009761F0D2C02E813F81223051
:10153000310571F18E819F8183309105E9F1C7C03A
:10154000ABE3B0E0EBE3F0E08081482F8A81282F05
:1015500030E081E090E0022E02C0880F991F0A94CB
:10156000E2F7842B8C93B3C0A8E3B0E0E8E3F0E0AB
:101570008081482F8A81282F30E081E090E0022E80
:1015800002C0880F991F0A94E2F7842B8C939FC0A6
:10159000A5E3B0E0E5E3F0E08081482F8A81282FC1
:1015A00030E081E090E0022E02C0880F991F0A947B
:1015B000E2F7842B8C938BC0A2E3B0E0E2E3F0E08F
:1015C0008081482F8A81282F30E081E090E0022E30
:1015D00002C0880F991F0A94E2F7842B8C9377C07E
:1015E0008B81882309F073C08981282F30E03D83E7
:1015F0002C838C819D818130910559F12C813D8115
:10160000223031052CF48C819D81009769F05FC0F8
:101610002C813D812230310589F18C819D8183307F
:10162000910509F440C053C0ABE3B0E0EBE3F0E058
:101630008081482F8A81282F30E081E090E0022EBF
:1016400002C0880F991F0A94E2F7809584238C9337
:101650003EC0A8E3B0E0E8E3F0E08081482F8A8153
:10166000282F30E081E090E0022E02C0880F991F01
:101670000A94E2F7809584238C9329C0A5E3B0E017
:10168000E5E3F0E08081482F8A81282F30E081E077
:1016900090E0022E02C0880F991F0A94E2F780950D
:1016A00084238C9314C0A2E3B0E0E2E3F0E08081F5
:1016B000482F8A81282F30E081E090E0022E02C07E
:1016C000880F991F0A94E2F7809584238C932796BC
:1016D0000FB6F894DEBF0FBECDBFCF91DF91089556
:1016E000DF93CF9300D000D000D0CDB7DEB78B838F
:1016F0006C831A8219828B81282F30E03E832D83E0
:101700008D819E818130910559F12D813E8122305C
:1017100031052CF48D819E81009769F05FC02D8189
:101720003E812230310589F18D819E818330910582
:1017300009F440C053C0E9E3F0E08081482F50E055
:101740008C81282F30E081E090E0022E02C0880FCB
:10175000991F0A94E2F7842395239A8389833EC0D4
:10176000E6E3F0E08081482F50E08C81282F30E0C4
:1017700081E090E0022E02C0880F991F0A94E2F7E0
:10178000842395239A83898329C0E3E3F0E0808151
:10179000482F50E08C81282F30E081E090E0022E2D
:1017A00002C0880F991F0A94E2F7842395239A8335
:1017B000898314C0E0E3F0E08081482F50E08C8101
:1017C000282F30E081E090E0022E02C0880F991FA0
:1017D0000A94E2F7842395239A8389838981269644
:1017E0000FB6F894DEBF0FBECDBFCF91DF91089545
:1017F000DF93CF9300D000D0CDB7DEB789836A8363
:101800008981282F30E03C832B838B819C81813020
:101810009105D1F02B813C81223031052CF48B8154
:101820009C81009761F01EC02B813C8122303105E4
:1018300081F08B819C818330910581F013C0EAE3B4
:10184000F0E08A8180830EC0E7E3F0E08A81808344
:1018500009C0E4E3F0E08A81808304C0E1E3F0E0C2
:101860008A8180830F900F900F900F90CF91DF911E
:101870000895DF93CF9300D000D0CDB7DEB7898332
:101880006A838981282F30E03C832B838B819C8164
:1018900081309105D1F02B813C81223031052CF42F
:1018A0008B819C81009761F01EC02B813C8122308E
:1018B000310581F08B819C818330910581F013C0CB
:1018C000EBE3F0E08A8180830EC0E8E3F0E08A81F8
:1018D000808309C0E5E3F0E08A81808304C0E2E30D
:1018E000F0E08A8180830F900F900F900F90CF913E
:1018F000DF910895DF93CF9300D000D0CDB7DEB74E
:1019000089836A838981282F30E03C832B838B81F4
:101910009C818130910549F12B813C812230310538
:101920002CF48B819C81009761F05AC02B813C8103
:101930002230310571F18B819C8183309105E9F171
:101940004FC0ABE3B0E0EBE3F0E08081482F8A8149
:10195000282F30E081E090E0022E02C0880F991F0E
:101960000A94E2F784278C933BC0A8E3B0E0E8E355
:10197000F0E08081482F8A81282F30E081E090E0DC
:10198000022E02C0880F991F0A94E2F784278C93D5
:1019900027C0A5E3B0E0E5E3F0E08081482F8A812D
:1019A000282F30E081E090E0022E02C0880F991FBE
:1019B0000A94E2F784278C9313C0A2E3B0E0E2E339
:1019C000F0E08081482F8A81282F30E081E090E08C
:1019D000022E02C0880F991F0A94E2F784278C9385
:1019E0000F900F900F900F90CF91DF910895DF939C
:1019F000CF9300D000D000D0CDB7DEB789836A8303
:101A00008A81813009F03FC08981282F30E03E83F0
:101A10002D838D819E8181309105E9F02D813E815C
:101A2000223031052CF48D819E81009761F06DC0CC
:101A30002D813E8122303105B1F08D819E81833030
:101A40009105C9F062C0AAE3B0E0EAE3F0E080816A
:101A50008F608C935AC0A7E3B0E0E7E3F0E08081A9
:101A60008F608C9352C0A4E3B0E0E4E3F0E08081A7
:101A70008F608C934AC0A1E3B0E0E1E3F0E08081A5
:101A80008F608C9342C08A81882309F03EC089818F
:101A9000282F30E03C832B838B819C818130910502
:101AA000E9F02B813C81223031052CF48B819C8123
:101AB000009761F02AC02B813C8122303105B1F0C2
:101AC0008B819C8183309105C9F01FC0AAE3B0E0EF
:101AD000EAE3F0E080818F708C9317C0A7E3B0E059
:101AE000E7E3F0E080818F708C930FC0A4E3B0E057
:101AF000E4E3F0E080818F708C9307C0A1E3B0E055
:101B0000E1E3F0E080818F708C9326960FB6F89415
:101B1000DEBF0FBECDBFCF91DF910895DF93CF938E
:101B200000D000D000D0CDB7DEB789836A838A8128
:101B3000813009F03FC08981282F30E03E832D831A
:101B40008D819E8181309105E9F02D813E81223089
:101B500031052CF48D819E81009761F06DC02D813F
:101B60003E8122303105B1F08D819E818330910517
:101B7000C9F062C0AAE3B0E0EAE3F0E08081806FE0
:101B80008C935AC0A7E3B0E0E7E3F0E08081806F78
:101B90008C9352C0A4E3B0E0E4E3F0E08081806F76
:101BA0008C934AC0A1E3B0E0E1E3F0E08081806F74
:101BB0008C9342C08A81882309F03EC08981282FF6
:101BC00030E03C832B838B819C8181309105E9F04F
:101BD0002B813C81223031052CF48B819C81009734
:101BE00061F02AC02B813C8122303105B1F08B811C
:101BF0009C8183309105C9F01FC0AAE3B0E0EAE3FD
:101C0000F0E080818F708C9317C0A7E3B0E0E7E32A
:101C1000F0E080818F708C930FC0A4E3B0E0E4E328
:101C2000F0E080818F708C9307C0A1E3B0E0E1E326
:101C3000F0E080818F708C9326960FB6F894DEBF0B
:101C40000FBECDBFCF91DF910895DF93CF9300D02A
:101C500000D0CDB7DEB789836A838981282F30E031
:101C60003C832B838B819C818130910509F12B81F1
:101C70003C81223031052CF48B819C81009761F0EE
:101C80003AC02B813C8122303105F1F08B819C815F
:101C90008330910529F12FC0ABE3B0E0EBE3F0E036
:101CA0008081982F907F8A818F70892B8C9323C09D
:101CB000A8E3B0E0E8E3F0E08081982F907F8A818C
:101CC0008F70892B8C9317C0A5E3B0E0E5E3F0E0BB
:101CD0008081982F907F8A818F70892B8C930BC085
:101CE000A2E3B0E0E2E3F0E08081982F907F8A8168
:101CF0008F70892B8C930F900F900F900F90CF9136
:101D0000DF910895DF93CF9300D000D0CDB7DEB739
:101D100089836A838981282F30E03C832B838B81E0
:101D20009C818130910509F12B813C812230310564
:101D30002CF48B819C81009761F03AC02B813C810F
:101D400022303105F1F08B819C818330910529F19E
:101D50002FC0ABE3B0E0EBE3F0E08081982F9F7001
:101D60008A81807F892B8C9323C0A8E3B0E0E8E3CD
:101D7000F0E08081982F9F708A81807F892B8C93DF
:101D800017C0A5E3B0E0E5E3F0E08081982F9F70F5
:101D90008A81807F892B8C930BC0A2E3B0E0E2E3C1
:101DA000F0E08081982F9F708A81807F892B8C93AF
:101DB0000F900F900F900F90CF91DF910895DF93C8
:101DC000CF9300D000D0CDB7DEB789836A838981F5
:101DD000282F30E03C832B838B819C8181309105BF
:101DE00041F12B813C81223031052CF48B819C8187
:101DF000009761F056C02B813C812230310561F1A2
:101E00008B819C8183309105D1F14BC0ABE3B0E075
:101E1000EBE3F0E08081282F2F708A81882F90E0FB
:101E200082959295907F9827807F9827822B8C931C
:101E300038C0A8E3B0E0E8E3F0E08081282F2F70FD
:101E40008A81882F90E082959295907F9827807F55
:101E50009827822B8C9325C0A5E3B0E0E5E3F0E062
:101E60008081282F2F708A81882F90E0829592950B
:101E7000907F9827807F9827822B8C9312C0A2E3B3
:101E8000B0E0E2E3F0E08081282F2F708A81882F74
:101E900090E082959295907F9827807F9827822B5B
:101EA0008C930F900F900F900F90CF91DF9108952A
:101EB000DF93CF9300D000D0CDB7DEB789836A839C
:101EC0008981282F30E03C832B838B819C8181305A
:101ED000910511F12B813C81223031052CF48B814D
:101EE0009C81009761F03EC02B813C8122303105FE
:101EF00001F18B819C818330910541F133C0ABE3CB
:101F0000B0E0EBE3F0E08081982F9F708A818295AA
:101F10008F70892B8C9326C0A8E3B0E0E8E3F0E053
:101F20008081982F9F708A8182958F70892B8C93E6
:101F300019C0A5E3B0E0E5E3F0E08081982F9F7041
:101F40008A8182958F70892B8C930CC0A2E3B0E0BC
:101F5000E2E3F0E08081982F9F708A8182958F70F4
:101F6000892B8C930F900F900F900F90CF91DF9152
:101F70000895DF93CF93CDB7DEB7A7E2B0E0E7E2F5
:101F8000F0E0808180648C93A7E2B0E0E7E2F0E0CB
:101F900080818F778C93A7E2B0E0E7E2F0E0808168
:101FA0008F7D8C93A6E2B0E0E6E2F0E08081816074
:101FB0008C93A6E2B0E0E6E2F0E080818D7F8C9326
:101FC000A6E2B0E0E6E2F0E080818B7F8C93A6E2AF
:101FD000B0E0E6E2F0E0808180688C93CF91DF9101
:101FE0000895DF93CF9300D00F92CDB7DEB78B83E8
:101FF0001A821982A7E2B0E0E7E2F0E08081807EF9
:102000008C93A7E2B0E0E7E2F0E090818B81892B2E
:102010008C93A6E2B0E0E6E2F0E0808180648C93ED
:10202000E6E2F0E08081882F90E080719070009768
:10203000B9F3A6E2B0E0E6E2F0E0808180618C9343
:10204000E4E2F0E0808191819A83898389819A8199
:102050000F900F900F90CF91DF910895DF93CF9362
:10206000CDB7DEB70E94B90F80E060E040E00E948B
:10207000700980E061E040E00E947009CF91DF913B
:102080000895DF93CF9300D000D00F92CDB7DEB785
:102090008D838D810E94F10F9C838B838B819C812A
:1020A000CC01A0E0B0E028E833E140E050E0BC0122
:1020B000CD010E943726DC01CB012FEF33E040E059
:1020C00050E0BC01CD010E947526DA01C9019A8356
:1020D000898389819A810F900F900F900F900F90B4
:1020E000CF91DF910895DF93CF93CDB7DEB70E94F4
:1020F000B90F80E062E040E00E947009CF91DF916B
:102100000895DF93CF9300D000D00F92CDB7DEB704
:102110008D8319821A821B821C828D810E94F10F8D
:10212000CC01A0E0B0E089839A83AB83BC83898132
:102130009A81AB81BC812EEE32E040E050E0BC01E0
:10214000CD010E943726DC01CB01BC01CD010E94EC
:10215000A904DC01CB01BC01CD0120E030ED4FEB47
:1021600054E40E941903DC01CB01BC01CD010E94A3
:102170004900DC01CB0189839A83AB83BC838981CD
:102180009A810F900F900F900F900F90CF91DF9149
:102190000895DF93CF93CDB7DEB780E063E041E0F1
:1021A0000E94700980E064E041E00E94700980E0D4
:1021B00065E041E00E94700983E065E041E00E9433
:1021C000700983E066E041E00E94700983E065E009
:1021D00041E00E94700983E065E041E00E94700ADE
:1021E00083E066E040E00E94700ACF91DF9108959D
:1021F000DF93CF9300D0CDB7DEB789836A8389811F
:10220000813081F480E063E041E00E94700A80E068
:1022100064E040E00E94700A80E065E041E00E94D6
:10222000700A0DC08981882351F480E064E040E0A9
:102230000E94700A80E064E040E00E94700A8A8197
:10224000813081F483E065E041E00E94700A83E020
:1022500066E040E00E94700A83E067E041E00E948F
:10226000700A0DC08981882351F480E064E040E069
:102270000E94700A80E064E040E00E94700A0F90C3
:102280000F90CF91DF910895DF93CF9300D0CDB71A
:10229000DEB789836A8389818130F9F480E063E065
:1022A00040E00E94700A80E064E041E00E94700A11
:1022B00080E065E041E00E94700A83E065E040E074
:1022C0000E94700A83E066E041E00E94700A83E0A9
:1022D00067E041E00E94700A1BC08981882359F49D
:1022E00080E063E040E00E94700A80E064E040E04B
:1022F0000E94700A0DC08A81882351F483E065E052
:1023000040E00E94700A83E066E040E00E94700AAC
:102310000F900F90CF91DF910895DF93CF930F929D
:10232000CDB7DEB789838981882F90E00E947E0730
:102330000F90CF91DF910895DF93CF93CDB7DEB7A4
:1023400080E065E040E00E94700A83E067E040E0E2
:102350000E94700ACF91DF910895DF93CF9300D050
:10236000CDB7DEB789836A8389816A8141E00E94A3
:10237000700989816A8140E00E94700A0F900F9075
:10238000CF91DF910895DF93CF9300D0CDB7DEB723
:1023900089836A8389816A8141E00E94700A0F9073
:1023A0000F90CF91DF910895DF93CF9300D0CDB7F9
:1023B000DEB789836A8389816A8140E00E94700A5E
:1023C0000F900F90CF91DF910895DF93CF9300D0BE
:1023D000CDB7DEB789836A8389816A810E947A0CCE
:1023E0000F900F90CF91DF9108950F931F93DF937C
:1023F000CF93CDB7DEB7C157D0400FB6F894DEBF4C
:102400000FBECDBFFE01EF58FF4F808382E060E03A
:1024100040E00E94700A82E061E040E00E94700AA1
:10242000FE01E359FF4F80E090E0A0E8BFE3808326
:102430009183A283B3838E0107591F4FFE01E35995
:10244000FF4F608171818281938120E030E04AEF0B
:1024500054E40E941F02DC01CB01F80180839183C8
:10246000A283B383FE01E759FF4F608171818281AE
:10247000938120E030E040E85FE30E942504882358
:1024800044F4FE01E959FF4F81E090E0918380839D
:1024900064C0FE01E759FF4F6081718182819381A1
:1024A00020E03FEF4FE757E40E94C50318160CF0F9
:1024B00043C0FE01E359FF4F6081718182819381A6
:1024C00020E030E040E251E40E941F02DC01CB0139
:1024D0008E0109591F4FBC01CD010E944900DC014A
:1024E000CB01F801918380831FC0FE01EB59FF4FA0
:1024F00088EC90E091838083FE01EB59FF4F80814F
:1025000091810197F1F7FE01EB59FF4F9183808391
:10251000DE01A959BF4FFE01E959FF4F808191812A
:10252000019711969C938E93FE01E959FF4F80818C
:1025300091810097D1F627C08E0109591F4FFE01E6
:10254000E759FF4F60817181828193810E94490028
:10255000DC01CB01F80191838083DE01AD59BF4FCF
:10256000FE01E959FF4F808191818D939C93FE017B
:10257000ED59FF4F808191810197F1F7FE01ED59EF
:10258000FF4F9183808382E062E041E00E94700A05
:10259000FE01E15AFF4F80E090E0A0E8BFE38083B6
:1025A0009183A283B3838E01055A1F4FFE01E15A26
:1025B000FF4F608171818281938120E030E04AEF9A
:1025C00054E40E941F02DC01CB01F8018083918357
:1025D000A283B383FE01E55AFF4F6081718182813E
:1025E000938120E030E040E85FE30E9425048823E7
:1025F00044F4FE01E75AFF4F81E090E0918380832D
:1026000064C0FE01E55AFF4F608171818281938130
:1026100020E03FEF4FE757E40E94C50318160CF087
:1026200043C0FE01E15AFF4F608171818281938135
:1026300020E030E040E251E40E941F02DC01CB01C7
:102640008E01075A1F4FBC01CD010E944900DC01D9
:10265000CB01F801918380831FC0FE01E95AFF4F2F
:1026600088EC90E091838083FE01E95AFF4F8081DE
:1026700091810197F1F7FE01E95AFF4F9183808321
:10268000DE01A75ABF4FFE01E75AFF4F80819181BB
:10269000019711969C938E93FE01E75AFF4F80811C
:1026A00091810097D1F627C08E01075A1F4FFE0176
:1026B000E55AFF4F60817181828193810E944900B8
:1026C000DC01CB01F80191838083DE01AB5ABF4F5F
:1026D000FE01E75AFF4F808191818D939C93FE010B
:1026E000EB5AFF4F808191810197F1F7FE01EB5A80
:1026F000FF4F91838083FE01EF58FF4F82E060819E
:102700000E94820EFE01EF5AFF4F80E090E0A0E8A9
:10271000BFE380839183A283B3838E01035B1F4F4A
:10272000FE01EF5AFF4F608171818281938120E029
:1027300030E04AEF54E40E941F02DC01CB01F801B3
:1027400080839183A283B383FE01E35BFF4F6081AB
:1027500071818281938120E030E040E85FE30E9454
:102760002504882344F4FE01E55BFF4F81E090E0FF
:102770009183808364C0FE01E35BFF4F60817181C0
:102780008281938120E03FEF4FE757E40E94C50329
:1027900018160CF043C0FE01EF5AFF4F60817181A3
:1027A0008281938120E030E040E251E40E941F02E8
:1027B000DC01CB018E01055B1F4FBC01CD010E94E6
:1027C0004900DC01CB01F801918380831FC0FE0129
:1027D000E75BFF4F88EC90E091838083FE01E75B2D
:1027E000FF4F808191810197F1F7FE01E75BFF4F79
:1027F00091838083DE01A55BBF4FFE01E55BFF4F48
:1028000080819181019711969C938E93FE01E55BE7
:10281000FF4F808191810097D1F627C08E01055B23
:102820001F4FFE01E35BFF4F6081718182819381C5
:102830000E944900DC01CB01F80191838083DE0115
:10284000A95BBF4FFE01E55BFF4F808191818D93B6
:102850009C93FE01E95BFF4F808191810197F1F725
:10286000FE01E95BFF4F91838083FE01ED5BFF4F2B
:1028700080E090E0A0E8BFE380839183A283B383EC
:102880008E01015C1F4FFE01ED5BFF4F6081718186
:102890008281938120E030E04AEF54E40E941F02DD
:1028A000DC01CB01F80180839183A283B383FE0115
:1028B000FF96608171818281938120E030E040E861
:1028C0005FE30E94250488232CF481E090E09EAF12
:1028D0008DAF46C0FE01FF96608171818281938138
:1028E00020E03FEF4FE757E40E94C503181664F558
:1028F000FE01ED5BFF4F608171818281938120E059
:1029000030E040E251E40E941F02DC01CB01BC0137
:10291000CD010E944900DC01CB019EAF8DAF0FC0FD
:1029200088EC90E09CAF8BAF8BAD9CAD0197F1F73D
:102930009CAF8BAF8DAD9EAD01979EAF8DAF8DAD32
:102940009EAD009769F716C0FE01FF966081718108
:10295000828193810E944900DC01CB019EAF8DAF43
:102960008DAD9EAD9AAF89AF89AD9AAD0197F1F764
:102970009AAF89AF82E062E040E00E94700A80E096
:1029800090E0A0E8BFE38DAB9EABAFABB8AF6DA955
:102990007EA98FA998AD20E030E04AEF54E40E9470
:1029A0001F02DC01CB0189AB9AABABABBCAB69A915
:1029B0007AA98BA99CA920E030E040E85FE30E945F
:1029C000250488232CF481E090E098AB8FA73FC0CA
:1029D00069A97AA98BA99CA920E03FEF4FE757E4AA
:1029E0000E94C50318164CF56DA97EA98FA998AD54
:1029F00020E030E040E251E40E941F02DC01CB0104
:102A0000BC01CD010E944900DC01CB0198AB8FA72E
:102A10000FC088EC90E09EA78DA78DA59EA501977D
:102A2000F1F79EA78DA78FA598A9019798AB8FA7BF
:102A30008FA598A9009769F714C069A97AA98BA9ED
:102A40009CA90E944900DC01CB0198AB8FA78FA500
:102A500098A99CA78BA78BA59CA50197F1F79CA78C
:102A60008BA782E062E041E00E94700A80E090E083
:102A7000A0E8BFE38FA398A7A9A7BAA76FA178A5DD
:102A800089A59AA520E030E04AEF54E40E941F0295
:102A9000DC01CB018BA39CA3ADA3BEA36BA17CA146
:102AA0008DA19EA120E030E040E85FE30E94250474
:102AB00088232CF481E090E09AA389A33FC06BA106
:102AC0007CA18DA19EA120E03FEF4FE757E40E943B
:102AD000C50318164CF56FA178A589A59AA520E025
:102AE00030E040E251E40E941F02DC01CB01BC0156
:102AF000CD010E944900DC01CB019AA389A30FC03C
:102B000088EC90E098A38F8F8F8D98A10197F1F7B3
:102B100098A38F8F89A19AA101979AA389A389A1CC
:102B20009AA1009769F714C06BA17CA18DA19EA109
:102B30000E944900DC01CB019AA389A389A19AA133
:102B40009E8F8D8F8D8D9E8D0197F1F79E8F8D8F2E
:102B5000FE01EF58FF4F82E060810E94DF0E80E0AF
:102B600090E0A0E8BFE3898F9A8FAB8FBC8F698D0F
:102B70007A8D8B8D9C8D20E030E04AEF54E40E94EA
:102B80001F02DC01CB018D8B9E8BAF8BB88F6D89C3
:102B90007E898F89988D20E030E040E85FE30E94D5
:102BA000250488232CF481E090E09C8B8B8B3FC024
:102BB0006D897E898F89988D20E03FEF4FE757E43C
:102BC0000E94C50318164CF5698D7A8D8B8D9C8DEE
:102BD00020E030E040E251E40E941F02DC01CB0122
:102BE000BC01CD010E944900DC01CB019C8B8B8B89
:102BF0000FC088EC90E09A8B898B89899A8901971C
:102C0000F1F79A8B898B8B899C8901979C8B8B8B95
:102C10008B899C89009769F714C06D897E898F899B
:102C2000988D0E944900DC01CB019C8B8B8B8B899A
:102C30009C89988B8F878F8598890197F1F7988B5E
:102C40008F8782E062E040E00E94700A80E090E0BE
:102C5000A0E8BFE38B879C87AD87BE876B857C85AB
:102C60008D859E8520E030E04AEF54E40E941F02EB
:102C7000DC01CB018F839887A987BA876F8178851C
:102C800089859A8520E030E040E85FE30E942504D2
:102C900088232CF481E090E09E838D833FC06F8178
:102CA000788589859A8520E03FEF4FE757E40E94B9
:102CB000C50318164CF56B857C858D859E8520E0B7
:102CC00030E040E251E40E941F02DC01CB01BC0174
:102CD000CD010E944900DC01CB019E838D830FC092
:102CE00088EC90E09C838B838B819C810197F1F72A
:102CF0009C838B838D819E8101979E838D838D81A3
:102D00009E81009769F714C06F81788589859A85BF
:102D10000E944900DC01CB019E838D838D819E81C1
:102D20009A83898389819A810197F1F79A838983AC
:102D3000CF58DF4F0FB6F894DEBF0FBECDBFCF9197
:102D4000DF911F910F9108950F931F93DF93CF93FE
:102D5000CDB7DEB7C157D0400FB6F894DEBF0FBE77
:102D6000CDBFFE01EF58FF4F808382E060E041E07D
:102D70000E94700A82E061E040E00E94700AFE0159
:102D8000E359FF4F80E090E0A0E8BFE380839183A8
:102D9000A283B3838E0107591F4FFE01E359FF4FF2
:102DA000608171818281938120E030E04AEF54E4B8
:102DB0000E941F02DC01CB01F80180839183A28372
:102DC000B383FE01E759FF4F608171818281938156
:102DD00020E030E040E85FE30E942504882344F4CB
:102DE000FE01E959FF4F81E090E09183808364C048
:102DF000FE01E759FF4F608171818281938120E05C
:102E00003FEF4FE757E40E94C50318160CF043C08C
:102E1000FE01E359FF4F608171818281938120E03F
:102E200030E040E251E40E941F02DC01CB018E0140
:102E300009591F4FBC01CD010E944900DC01CB01A3
:102E4000F801918380831FC0FE01EB59FF4F88EC8E
:102E500090E091838083FE01EB59FF4F8081918147
:102E60000197F1F7FE01EB59FF4F91838083DE015B
:102E7000A959BF4FFE01E959FF4F80819181019708
:102E800011969C938E93FE01E959FF4F80819181A9
:102E90000097D1F627C08E0109591F4FFE01E7594F
:102EA000FF4F60817181828193810E944900DC0122
:102EB000CB01F80191838083DE01AD59BF4FFE0144
:102EC000E959FF4F808191818D939C93FE01ED59CB
:102ED000FF4F808191810197F1F7FE01ED59FF4F7E
:102EE0009183808382E062E041E00E94700AFE01EB
:102EF000E15AFF4F80E090E0A0E8BFE38083918338
:102F0000A283B3838E01055A1F4FFE01E15AFF4F82
:102F1000608171818281938120E030E04AEF54E446
:102F20000E941F02DC01CB01F80180839183A28300
:102F3000B383FE01E55AFF4F6081718182819381E5
:102F400020E030E040E85FE30E942504882344F459
:102F5000FE01E75AFF4F81E090E09183808364C0D7
:102F6000FE01E55AFF4F608171818281938120E0EB
:102F70003FEF4FE757E40E94C50318160CF043C01B
:102F8000FE01E15AFF4F608171818281938120E0CF
:102F900030E040E251E40E941F02DC01CB018E01CF
:102FA000075A1F4FBC01CD010E944900DC01CB0133
:102FB000F801918380831FC0FE01E95AFF4F88EC1E
:102FC00090E091838083FE01E95AFF4F80819181D7
:102FD0000197F1F7FE01E95AFF4F91838083DE01EB
:102FE000A75ABF4FFE01E75AFF4F80819181019799
:102FF00011969C938E93FE01E75AFF4F8081918139
:103000000097D1F627C08E01075A1F4FFE01E55ADF
:10301000FF4F60817181828193810E944900DC01B0
:10302000CB01F80191838083DE01AB5ABF4FFE01D3
:10303000E75AFF4F808191818D939C93FE01EB5A5B
:10304000FF4F808191810197F1F7FE01EB5AFF4F0D
:1030500091838083FE01EF58FF4F82E060810E94E0
:10306000820EFE01EF5AFF4F80E090E0A0E8BFE340
:1030700080839183A283B3838E01035B1F4FFE0184
:10308000EF5AFF4F608171818281938120E030E0AF
:103090004AEF54E40E941F02DC01CB01F801808357
:1030A0009183A283B383FE01E35BFF4F6081718153
:1030B0008281938120E030E040E85FE30E942504B4
:1030C000882344F4FE01E55BFF4F81E090E09183AB
:1030D000808364C0FE01E35BFF4F60817181828168
:1030E000938120E03FEF4FE757E40E94C503181695
:1030F0000CF043C0FE01EF5AFF4F60817181828165
:10310000938120E030E040E251E40E941F02DC01A4
:10311000CB018E01055B1F4FBC01CD010E94490010
:10312000DC01CB01F801918380831FC0FE01E75BC6
:10313000FF4F88EC90E091838083FE01E75BFF4FB7
:10314000808191810197F1F7FE01E75BFF4F918349
:103150008083DE01A55BBF4FFE01E55BFF4F8081F1
:103160009181019711969C938E93FE01E55BFF4F31
:10317000808191810097D1F627C08E01055B1F4F9A
:10318000FE01E35BFF4F60817181828193810E9428
:103190004900DC01CB01F80191838083DE01A95B4A
:1031A000BF4FFE01E55BFF4F808191818D939C9322
:1031B000FE01E95BFF4F808191810197F1F7FE01EC
:1031C000E95BFF4F9183808382E062E040E00E94F0
:1031D000700AFE01ED5BFF4F80E090E0A0E8BFE3E6
:1031E00080839183A283B3838E01015C1F4FFE0114
:1031F000ED5BFF4F608171818281938120E030E03F
:103200004AEF54E40E941F02DC01CB01F8018083E5
:103210009183A283B383FE01FF96608171818281D5
:10322000938120E030E040E85FE30E94250488239A
:103230002CF481E090E09EAF8DAF46C0FE01FF967A
:10324000608171818281938120E03FEF4FE757E4F5
:103250000E94C503181664F5FE01ED5BFF4F608107
:1032600071818281938120E030E040E251E40E944C
:103270001F02DC01CB01BC01CD010E944900DC0131
:10328000CB019EAF8DAF0FC088EC90E09CAF8BAFB1
:103290008BAD9CAD0197F1F79CAF8BAF8DAD9EAD23
:1032A00001979EAF8DAF8DAD9EAD009769F716C0AB
:1032B000FE01FF9660817181828193810E944900A5
:1032C000DC01CB019EAF8DAF8DAD9EAD9AAF89AFC6
:1032D00089AD9AAD0197F1F79AAF89AF82E062E0CC
:1032E00041E00E94700A80E090E0A0E8BFE38DAB6F
:1032F0009EABAFABB8AF6DA97EA98FA998AD20E00A
:1033000030E04AEF54E40E941F02DC01CB0189AB9C
:103310009AABABABBCAB69A97AA98BA99CA920E0FD
:1033200030E040E85FE30E94250488232CF481E02C
:1033300090E098AB8FA73FC069A97AA98BA99CA9F7
:1033400020E03FEF4FE757E40E94C50318164CF505
:103350006DA97EA98FA998AD20E030E040E251E44C
:103360000E941F02DC01CB01BC01CD010E9449007B
:10337000DC01CB0198AB8FA70FC088EC90E09EA733
:103380008DA78DA59EA50197F1F79EA78DA78FA567
:1033900098A9019798AB8FA78FA598A9009769F76F
:1033A00014C069A97AA98BA99CA90E944900DC01D3
:1033B000CB0198AB8FA78FA598A99CA78BA78BA5AE
:1033C0009CA50197F1F79CA78BA7FE01EF58FF4F33
:1033D00082E060810E94DF0E80E090E0A0E8BFE321
:1033E0008FA398A7A9A7BAA76FA178A589A59AA521
:1033F00020E030E04AEF54E40E941F02DC01CB01E0
:103400008BA39CA3ADA3BEA36BA17CA18DA19EA108
:1034100020E030E040E85FE30E94250488232CF49C
:1034200081E090E09AA389A33FC06BA17CA18DA10C
:103430009EA120E03FEF4FE757E40E94C503181616
:103440004CF56FA178A589A59AA520E030E040E26F
:1034500051E40E941F02DC01CB01BC01CD010E949E
:103460004900DC01CB019AA389A30FC088EC90E04E
:1034700098A38F8F8F8D98A10197F1F798A38F8FC5
:1034800089A19AA101979AA389A389A19AA10097DA
:1034900069F714C06BA17CA18DA19EA10E94490077
:1034A000DC01CB019AA389A389A19AA19E8F8D8F5C
:1034B0008D8D9E8D0197F1F79E8F8D8F80E090E02E
:1034C000A0E8BFE3898F9A8FAB8FBC8F698D7A8D0F
:1034D0008B8D9C8D20E030E04AEF54E40E941F0267
:1034E000DC01CB018D8B9E8BAF8BB88F6D897E8974
:1034F0008F89988D20E030E040E85FE30E9425044A
:1035000088232CF481E090E09C8B8B8B3FC06D89ED
:103510007E898F89988D20E03FEF4FE757E40E9426
:10352000C50318164CF5698D7A8D8B8D9C8D20E026
:1035300030E040E251E40E941F02DC01CB01BC01FB
:10354000CD010E944900DC01CB019C8B8B8B0FC00D
:1035500088EC90E09A8B898B89899A890197F1F799
:103560009A8B898B8B899C8901979C8B8B8B8B8900
:103570009C89009769F714C06D897E898F89988D21
:103580000E944900DC01CB019C8B8B8B8B899C8931
:10359000988B8F878F8598890197F1F7988B8F8704
:1035A00082E062E040E00E94700A80E090E0A0E8E3
:1035B000BFE38B879C87AD87BE876B857C858D85B8
:1035C0009E8520E030E04AEF54E40E941F02DC01B7
:1035D000CB018F839887A987BA876F817885898582
:1035E0009A8520E030E040E85FE30E9425048823CC
:1035F0002CF481E090E09E838D833FC06F817885BD
:1036000089859A8520E03FEF4FE757E40E94C50384
:1036100018164CF56B857C858D859E8520E030E005
:1036200040E251E40E941F02DC01CB01BC01CD014C
:103630000E944900DC01CB019E838D830FC088EC82
:1036400090E09C838B838B819C810197F1F79C8315
:103650008B838D819E8101979E838D838D819E8139
:10366000009769F714C06F81788589859A850E94D3
:103670004900DC01CB019E838D838D819E819A83DD
:10368000898389819A810197F1F79A838983CF5839
:10369000DF4F0FB6F894DEBF0FBECDBFCF91DF91E5
:1036A0001F910F910895DF93CF93CDB7DEB782E0DE
:1036B00060E041E00E94700982E061E041E00E9428
:1036C000700982E062E041E00E94700982E061E0FE
:1036D0000E948E0D82E00E94F51188E20E94F51191
:1036E0008CE00E94F51181E00E94F511CF91DF91ED
:1036F0000895DF93CF9300D00F92CDB7DEB79B83B1
:103700008A8319820EC08981282F30E08A819B81AB
:10371000FC01E20FF31F80810E94A41689818F5F54
:1037200089838981282F30E08A819B81FC01E20F07
:10373000F31F8081882339F70F900F900F90CF915E
:10374000DF910895DF93CF9300D000D00F92CDB7D3
:10375000DEB78A836B838A81282F30E03D832C83F8
:103760008C819D81009731F02C813D812130310584
:1037700021F006C08B81898303C08B81805C8983A3
:10378000898180680E94F5110F900F900F900F9023
:103790000F90CF91DF910895DF93CF9300D000D0A9
:1037A000CDB7DEB789836A835C834B8389816A8165
:1037B0000E94A21B8B819C810E94791B0F900F900D
:1037C0000F900F90CF91DF910895DF93CF93CDB7F6
:1037D000DEB764970FB6F894DEBF0FBECDBF8C8BFB
:1037E0001C821B828BE0FE013996DF01982F1D920F
:1037F0009A95E9F78C89882F90E09A8389838C8940
:10380000882399F480E30E94A4160FC08B819C81C9
:1038100001969C838B8389819A812AE030E0B901EB
:103820000E946226CB019A83898389819A810097BD
:1038300069F718861F8227C08C899AE0692F0E9439
:103840005626892F882F90E09E838D838C899AE05D
:10385000692F0E9456268C8B8F8198859C0120951C
:1038600030958B819C81280F391F8D81482F405DB9
:10387000CE010996FC01E20FF31F40838F819885EA
:10388000019698878F832F8138858B819C8128179B
:10389000390794F22B813C81CE010996FC01E20F9D
:1038A000F31F1082CE0109960E94791B64960FB611
:1038B000F894DEBF0FBECDBFCF91DF910895DF93A7
:1038C000CF93CDB7DEB76F970FB6F894DEBF0FBEBC
:1038D000CDBF6C8F7D8F8E8F9F8F1D821E821F822A
:1038E00018868BE0FE017196DF01982F1D929A9544
:1038F000E9F78C8D9D8DAE8DBF8D89839A83AB83C7
:10390000BC838C8D9D8DAE8DBF8D0097A105B105BB
:1039100009F580E30E94A4161DC08D819E81AF81B0
:10392000B8850196A11DB11D8D839E83AF83B88795
:1039300089819A81AB81BC812AE030E040E050E08F
:10394000BC01CD010E947526DA01C90189839A83E1
:10395000AB83BC8389819A81AB81BC810097A1052F
:10396000B105D9F61D861E861F86188A4AC08C8D21
:103970009D8DAE8DBF8D2AE030E040E050E0BC016F
:10398000CD010E947526DC01CB0189879A87AB8720
:10399000BC878C8D9D8DAE8DBF8D2AE030E040E0E0
:1039A00050E0BC01CD010E947526DA01C9018C8F5F
:1039B0009D8FAE8FBF8F8D859E85AF85B8899C0109
:1039C000AD0120953095409550958D819E81AF81B8
:1039D000B885280F391F4A1F5B1F8985682F605DD6
:1039E000CE014196FC01E20FF31F60838D859E8519
:1039F000AF85B8890196A11DB11D8D879E87AF87C0
:103A0000B88B2D853E854F8558898D819E81AF81EC
:103A1000B885281739074A075B0708F4A8CF8D81B6
:103A20009E81AF81B8859E012F5E3F4FF901E80F5F
:103A3000F91F1082CE0141960E94791B6F960FB636
:103A4000F894DEBF0FBECDBFCF91DF910895DF9315
:103A5000CF93CDB7DEB72E970FB6F894DEBF0FBE6B
:103A6000CDBF8EE00E94F51180E10E94F51180E249
:103A70000E94A41680E090E0A0E2B1E48B879C87CE
:103A8000AD87BE876B857C858D859E8520E030E087
:103A90004AEF54E40E941F02DC01CB018F83988718
:103AA000A987BA876F81788589859A8520E030E07B
:103AB00040E85FE30E94250488232CF481E090E035
:103AC0009E838D833FC06F81788589859A8520E0AC
:103AD0003FEF4FE757E40E94C50318164CF56B857E
:103AE0007C858D859E8520E030E040E251E40E9497
:103AF0001F02DC01CB01BC01CD010E944900DC01A9
:103B0000CB019E838D830FC088EC90E09C838B83D8
:103B10008B819C810197F1F79C838B838D819E81A2
:103B200001979E838D838D819E81009769F714C0D4
:103B30006F81788589859A850E944900DC01CB01D7
:103B40009E838D838D819E819A83898389819A81C9
:103B50000197F1F79A83898380E10E94F5112E96EF
:103B60000FB6F894DEBF0FBECDBFCF91DF910895A1
:103B7000DF93CF9300D0CDB7DEB71A8263C08A81BE
:103B8000282F30E080E190E002C0880F991F2A952D
:103B9000E2F7982F81E0692F0E94F80B8A81282F85
:103BA00030E080E190E002C0880F991F2A95E2F78B
:103BB000982F909581E0692F0E94390C19823BC0A3
:103BC000E6E3F0E08081282F30E08981882F90E0C3
:103BD000A90102C0559547958A95E2F7CA018170FF
:103BE0009070009729F5E6E3F0E08081282F30E01F
:103BF0008981882F90E0A90102C0559547958A9543
:103C0000E2F7CA0181709070009769F38981882F6B
:103C100090E0880F991F880F991F982F8A81890F2C
:103C20008F5F0E94271E0F900F90CF91DF91089514
:103C300089818F5F89838981843008F4C1CF8A812B
:103C40008F5F8A838A81843008F499CF96CFDF937F
:103C5000CF9300D000D0CDB7DEB789838981282FDC
:103C600030E03C832B838B819C818830910509F463
:103C700070C02B813C81293031055CF58B819C81A2
:103C80008430910509F459C02B813C8125303105E0
:103C90009CF48B819C818230910509F448C02B8172
:103CA0003C81233031050CF045C08B819C818130F3
:103CB000910509F439C067C02B813C81263031055C
:103CC00009F441C08B819C81873091050CF03EC086
:103CD00037C02B813C812C30310509F446C08B81E3
:103CE0009C818D3091055CF42B813C812A3031051B
:103CF000B1F18B819C818B309105A4F52DC02B8176
:103D00003C812E303105B9F18B819C818E3091053B
:103D10007CF12B813C812F30310579F18B819C81A5
:103D20008031910569F12FC097E09A832EC028E079
:103D30002A832BC039E03A8328C085E28A8325C0D4
:103D400094E09A8322C025E02A831FC036E03A839C
:103D50001CC08AE28A8319C091E09A8316C022E0CF
:103D60002A8313C033E03A8310C08DE28A830DC0EA
:103D700093E69A830AC01A8208C02DE32A8305C0FD
:103D80003BE23A8302C089818A838A810F900F9037
:103D90000F900F90CF91DF910895DF93CF93CDB720
:103DA000DEB782E063E041E00E947009CF91DF91CD
:103DB0000895DF93CF93CDB7DEB782E063E041E0B3
:103DC0000E94700ACF91DF910895DF93CF93CDB712
:103DD000DEB782E063E040E00E94700ACF91DF919D
:103DE0000895DF93CF93CDB7DEB70E94531B88E3CE
:103DF00095E20E94DA070E942E100E9473100E9422
:103E0000C91083E060E00E94AD1183E061E00E9490
:103E1000AD1183E063E00E94AD1183E060E00E9499
:103E2000D41183E061E00E94D41183E063E00E943A
:103E3000D4110E94CD1E0E94E51E0E9465080E94BA
:103E400099080E9471078CE293E20E94EF08CF91DB
:103E5000DF910895DF93CF93CDB7DEB72E970FB6DE
:103E6000F894DEBF0FBECDBF80E060E00E94A21BD1
:103E700080E690E00E94791B83E061E00E94C3111C
:103E800083E063E00E94D41183E060E00E94D411DB
:103E900080E090E0AAEFB4E48B879C87AD87BE8773
:103EA0006B857C858D859E8520E030E04AEF54E46B
:103EB0000E941F02DC01CB018F839887A987BA87F4
:103EC0006F81788589859A8520E030E040E85FE35E
:103ED0000E94250488232CF481E090E09E838D834A
:103EE0003FC06F81788589859A8520E03FEF4FE755
:103EF00057E40E94C50318164CF56B857C858D85AB
:103F00009E8520E030E040E251E40E941F02DC0187
:103F1000CB01BC01CD010E944900DC01CB019E8395
:103F20008D830FC088EC90E09C838B838B819C8178
:103F30000197F1F79C838B838D819E8101979E83EE
:103F40008D838D819E81009769F714C06F8178857C
:103F500089859A850E944900DC01CB019E838D836F
:103F60008D819E819A83898389819A810197F1F756
:103F70009A8389830E9480202E960FB6F894DEBF24
:103F80000FBECDBFCF91DF910895DF93CF93CDB713
:103F9000DEB72E970FB6F894DEBF0FBECDBF80E020
:103FA00060E00E94A21B80E790E00E94791B81E004
:103FB00065E00E94A21B0E94B81D809301028091BF
:103FC00001020E94E51B0E94B81D809302028091AD
:103FD00002020E94E51B8AE30E94A4160E94B81DFB
:103FE00080930302809103020E94E51B0E94B81D8A
:103FF00080930402809104020E94E51B80E090E01F
:10400000AAE7B4E48B879C87AD87BE876B857C85E8
:104010008D859E8520E030E04AEF54E40E941F0227
:10402000DC01CB018F839887A987BA876F81788558
:1040300089859A8520E030E040E85FE30E9425040E
:1040400088232CF481E090E09E838D833FC06F81B4
:10405000788589859A8520E03FEF4FE757E40E94F5
:10406000C50318164CF56B857C858D859E8520E0F3
:1040700030E040E251E40E941F02DC01CB01BC01B0
:10408000CD010E944900DC01CB019E838D830FC0CE
:1040900088EC90E09C838B838B819C810197F1F766
:1040A0009C838B838D819E8101979E838D838D81DF
:1040B0009E81009769F714C06F81788589859A85FC
:1040C0000E944900DC01CB019E838D838D819E81FE
:1040D0009A83898389819A810197F1F79A838983E9
:1040E0000E94A42581E00E94F5110E9499202E963D
:1040F0000FB6F894DEBF0FBECDBFCF91DF9108950C
:10410000DF93CF93CDB7DEB781E00E94F51107C0F2
:104110002CE730E080E060E0A9010E94CC1B81E048
:104120000E9441100097A1F30E94DB21CF91DF9103
:104130000895DF93CF93CDB7DEB76D970FB6F894A0
:10414000DEBF0FBECDBF1D8E2BE830E080E060E00B
:10415000A9010E94CC1B80E090E0A0E0B0E0898F34
:104160009A8FAB8FBC8F698D7A8D8B8D9C8D20E063
:1041700030E04AEF54E40E941F02DC01CB018D8B3A
:104180009E8BAF8BB88F6D897E898F89988D20E04B
:1041900030E040E85FE30E94250488232CF481E0AE
:1041A00090E09C8B8B8B3FC06D897E898F89988D29
:1041B00020E03FEF4FE757E40E94C50318164CF587
:1041C000698D7A8D8B8D9C8D20E030E040E251E44A
:1041D0000E941F02DC01CB01BC01CD010E944900FD
:1041E000DC01CB019C8B8B8B0FC088EC90E09A8B11
:1041F000898B89899A890197F1F79A8B898B8B89A9
:104200009C8901979C8B8B8B8B899C89009769F784
:1042100014C06D897E898F89988D0E944900DC01C8
:10422000CB019C8B8B8B8B899C89988B8F878F85FF
:1042300098890197F1F7988B8F8782E00E9481100F
:104240008D8F81E00E94F5112AE930E080E060E086
:10425000A9010E94CC1B8D8D0E94E51B80E090E09F
:10426000AAEFB4E48B879C87AD87BE876B857C857E
:104270008D859E8520E030E04AEF54E40E941F02C5
:10428000DC01CB018F839887A987BA876F817885F6
:1042900089859A8520E030E040E85FE30E942504AC
:1042A00088232CF481E090E09E838D833FC06F8152
:1042B000788589859A8520E03FEF4FE757E40E9493
:1042C000C50318164CF56B857C858D859E8520E091
:1042D00030E040E251E40E941F02DC01CB01BC014E
:1042E000CD010E944900DC01CB019E838D830FC06C
:1042F00088EC90E09C838B838B819C810197F1F704
:104300009C838B838D819E8101979E838D838D817C
:104310009E81009769F714C06F81788589859A8599
:104320000E944900DC01CB019E838D838D819E819B
:104330009A83898389819A810197F1F79A83898386
:104340008D8D0E94AC216D960FB6F894DEBF0FBE26
:10435000CDBFCF91DF910895DF93CF930F92CDB76B
:10436000DEB789830E94B81D8D33E1F789810E94F1
:104370008D1181E060E00E94F81083E061E00E940E
:10438000D41183E063E00E94D41183E060E00E94D6
:10439000C31181E00E94F51123EA30E080E060E083
:1043A000A9010E94CC1B0E94EC070E9438250F90A7
:1043B000CF91DF910895DF93CF93CDB7DEB72E97DE
:1043C0000FB6F894DEBF0FBECDBF81E00E94F5119D
:1043D00007C022EB30E080E060E0A9010E94CC1B26
:1043E00080E00E94411023E18838920790F381E039
:1043F0000E94F51121EC30E080E060E0A9010E940C
:10440000CC1B80E090E0AAEFB4E48B879C87AD875B
:10441000BE876B857C858D859E8520E030E04AEFE8
:1044200054E40E941F02DC01CB018F839887A98787
:10443000BA876F81788589859A8520E030E040E8E9
:104440005FE30E94250488232CF481E090E09E83A2
:104450008D833FC06F81788589859A8520E03FEF05
:104460004FE757E40E94C50318164CF56B857C8511
:104470008D859E8520E030E040E251E40E941F02DD
:10448000DC01CB01BC01CD010E944900DC01CB0164
:104490009E838D830FC088EC90E09C838B838B81FF
:1044A0009C810197F1F79C838B838D819E8101977D
:1044B0009E838D838D819E81009769F714C06F81E3
:1044C000788589859A850E944900DC01CB019E830D
:1044D0008D838D819E819A83898389819A810197B9
:1044E000F1F79A83898381E00E94F5110E94C51F2C
:1044F0002E960FB6F894DEBF0FBECDBFCF91DF91E1
:104500000895DF93CF93CDB7DEB72E970FB6F8940B
:10451000DEBF0FBECDBF0E949C1180E00E948D11B6
:1045200081E00E94F51180E062E00E94A21B80ED14
:1045300090E00E94791B109206021092070283E01D
:1045400060E00E94D41183E061E00E94D41183E016
:1045500063E00E94C3110E94D91E80E090E8ABE3A3
:10456000B5E48B879C87AD87BE876B857C858D8501
:104570009E8520E030E04AEF54E40E941F02DC01F7
:10458000CB018F839887A987BA876F8178858985C2
:104590009A8520E030E040E85FE30E94250488230C
:1045A0002CF481E090E09E838D833FC06F817885FD
:1045B00089859A8520E03FEF4FE757E40E94C503C5
:1045C00018164CF56B857C858D859E8520E030E046
:1045D00040E251E40E941F02DC01CB01BC01CD018D
:1045E0000E944900DC01CB019E838D830FC088ECC3
:1045F00090E09C838B838B819C810197F1F79C8356
:104600008B838D819E8101979E838D838D819E8179
:10461000009769F714C06F81788589859A850E9413
:104620004900DC01CB019E838D838D819E819A831D
:10463000898389819A810197F1F79A8389830E94FE
:10464000E51E0E942A1F2E960FB6F894DEBF0FBEFD
:10465000CDBFCF91DF910895DF93CF93CDB7DEB774
:10466000E8970FB6F894DEBF0FBECDBF80E00E9482
:104670008D1181E00E94F51180E062E00E94A21B92
:104680008BED90E00E94791B80E090E0AAE7B4E413
:104690008DAB9EABAFABB8AF6DA97EA98FA998AD1E
:1046A00020E030E04AEF54E40E941F02DC01CB011D
:1046B00089AB9AABABABBCAB69A97AA98BA99CA916
:1046C00020E030E040E85FE30E94250488232CF4DA
:1046D00081E090E098AB8FA73FC069A97AA98BA928
:1046E0009CA920E03FEF4FE757E40E94C50318164E
:1046F0004CF56DA97EA98FA998AD20E030E040E28D
:1047000051E40E941F02DC01CB01BC01CD010E94DB
:104710004900DC01CB0198AB8FA70FC088EC90E07B
:104720009EA78DA78DA59EA50197F1F79EA78DA7A2
:104730008FA598A9019798AB8FA78FA598A90097E7
:1047400069F714C069A97AA98BA99CA90E9449009C
:10475000DC01CB0198AB8FA78FA598A99CA78BA74D
:104760008BA59CA50197F1F79CA78BA70E949C1194
:1047700080E090E0A0E2B1E48FA398A7A9A7BAA730
:104780006FA178A589A59AA520E030E04AEF54E40E
:104790000E941F02DC01CB018BA39CA3ADA3BEA38F
:1047A0006BA17CA18DA19EA120E030E040E85FE3F9
:1047B0000E94250488232CF481E090E09AA389A329
:1047C0003FC06BA17CA18DA19EA120E03FEF4FE7F0
:1047D00057E40E94C50318164CF56FA178A589A56A
:1047E0009AA520E030E040E251E40E941F02DC0183
:1047F000CB01BC01CD010E944900DC01CB019AA391
:1048000089A30FC088EC90E098A38F8F8F8D98A11B
:104810000197F1F798A38F8F89A19AA101979AA385
:1048200089A389A19AA1009769F714C06BA17CA103
:104830008DA19EA10E944900DC01CB019AA389A30E
:1048400089A19AA19E8F8D8F8D8D9E8D0197F1F7F5
:104850009E8F8D8F83E060E00E94D41183E061E041
:104860000E94D41183E063E00E94D41180E090E0C4
:10487000A0E2B1E4898F9A8FAB8FBC8F698D7A8D5E
:104880008B8D9C8D20E030E04AEF54E40E941F02A3
:10489000DC01CB018D8B9E8BAF8BB88F6D897E89B0
:1048A0008F89988D20E030E040E85FE30E94250486
:1048B00088232CF481E090E09C8B8B8B3FC06D892A
:1048C0007E898F89988D20E03FEF4FE757E40E9463
:1048D000C50318164CF5698D7A8D8B8D9C8D20E063
:1048E00030E040E251E40E941F02DC01CB01BC0138
:1048F000CD010E944900DC01CB019C8B8B8B0FC04A
:1049000088EC90E09A8B898B89899A890197F1F7D5
:104910009A8B898B8B899C8901979C8B8B8B8B893C
:104920009C89009769F714C06D897E898F89988D5D
:104930000E944900DC01CB019C8B8B8B8B899C896D
:10494000988B8F878F8598890197F1F7988B8F8740
:1049500010920602109207020E94D91E81E00E9466
:10496000F51180E062E00E94A21B88EE90E00E94B8
:10497000791B80E090E0AAE7B4E48B879C87AD8741
:10498000BE876B857C858D859E8520E030E04AEF73
:1049900054E40E941F02DC01CB018F839887A98712
:1049A000BA876F81788589859A8520E030E040E874
:1049B0005FE30E94250488232CF481E090E09E832D
:1049C0008D833FC06F81788589859A8520E03FEF90
:1049D0004FE757E40E94C50318164CF56B857C859C
:1049E0008D859E8520E030E040E251E40E941F0268
:1049F000DC01CB01BC01CD010E944900DC01CB01EF
:104A00009E838D830FC088EC90E09C838B838B8189
:104A10009C810197F1F79C838B838D819E81019707
:104A20009E838D838D819E81009769F714C06F816D
:104A3000788589859A850E944900DC01CB019E8397
:104A40008D838D819E819A83898389819A81019743
:104A5000F1F79A8389830E94E51E0E942A1FE89637
:104A60000FB6F894DEBF0FBECDBFCF91DF91089592
:104A7000DF93CF93CDB7DEB780910602882331F460
:104A800080910702882311F40E94812280910702FD
:104A9000882349F480910602882329F08091060238
:104AA000815080930602809107028823A9F08091AB
:104AB0000602882329F08091060281508093060225
:104AC00080910602882341F48BE380930602809153
:104AD0000702815080930702809106028A3058F4C1
:104AE00081E064E00E94A21B80E00E94E51B8091AF
:104AF00006020E94E51B809107028A3058F481E08B
:104B000061E00E94A21B80E00E94E51B80910702E9
:104B10000E94E51B81E063E00E94A21B80910702D6
:104B20008A3020F0809107020E94E51B8AE30E94F0
:104B3000A416809106028A3020F0809106020E941D
:104B4000E51BCF91DF9108950F931F93DF93CF93D0
:104B500000D00F92CDB7DEB781E08B831A8219C0E7
:104B6000009107028A81882F90E0FC01EF5FFD4FE2
:104B700010818AE06B810E94F525189F802D1124F9
:104B8000800F809307028B8181508B838A818F5F96
:104B90008A838A81823020F381E08B8382E089835B
:104BA00019C0009106028981882F90E0FC01EF5F17
:104BB000FD4F10818AE06B810E94F525189F802DA2
:104BC0001124800F809306028B8181508B83898111
:104BD0008F5F89838981843020F30F900F900F902D
:104BE000CF91DF911F910F910895DF93CF9300D064
:104BF00000D000D0CDB7DEB78C836D8381E08B838E
:104C00008D81813019F48C818E831EC08D81882323
:104C100019F481E08E8318C01A8219820BC09B811F
:104C20008C81989F802D11248B8389819A81019694
:104C30009A8389838D81282F30E089819A81821718
:104C400093076CF38B818E838E8126960FB6F89432
:104C5000DEBF0FBECDBFCF91DF910895DF93CF931D
:104C6000CDB7DEB70E94F11E0E942A1FFFCF629FC0
:104C7000D001739FF001829FE00DF11D649FE00D54
:104C8000F11D929FF00D839FF00D749FF00D659FB5
:104C9000F00D9927729FB00DE11DF91F639FB00DB4
:104CA000E11DF91FBD01CF0111240895991B79E081
:104CB00004C0991F961708F0961B881F7A95C9F7AC
:104CC0008095089597FB092E07260AD077FD04D01A
:104CD0002ED006D000201AF4709561957F4F08956C
:104CE000F6F7909581959F4F0895A1E21A2EAA1B81
:104CF000BB1BFD010DC0AA1FBB1FEE1FFF1FA2178C
:104D0000B307E407F50720F0A21BB30BE40BF50B88
:104D1000661F771F881F991F1A9469F76095709511
:104D2000809590959B01AC01BD01CF010895AA1B10
:104D3000BB1B51E107C0AA1FBB1FA617B70710F086
:104D4000A61BB70B881F991F5A95A9F780959095B8
:104D5000BC01CD0108952F923F924F925F926F92C6
:104D60007F928F929F92AF92BF92CF92DF92EF92FB
:104D7000FF920F931F93CF93DF93CDB7DEB7CA1B7C
:104D8000DB0B0FB6F894DEBF0FBECDBF09942A88A7
:104D9000398848885F846E847D848C849B84AA844F
:104DA000B984C884DF80EE80FD800C811B81AA81DC
:104DB000B981CE0FD11D0FB6F894DEBF0FBECDBFA7
:084DC000ED010895F894FFCF06
:104DC8002A2A2A2A57656C636F6D652A2A2A2A00BF
:104DD800454E5445522054494D453A00706C732055
:104DE800456E74657220466F6F6400706C73204561
:104DF8006E7465722054656D700074656D702069FD
:104E08007320005468652052657365742054696D79
:104E18006500506C7320436C6F736520446F6F722C
:104E280000446F6F7220697320436C6F7365640070
:104E38006861707079206D65616C00537973746571
:104E48006D205265736574004242454220424545D3
:104E580042000000000000000000000102020303FD
:104E680003030404040404040404050505050505F6
:104E780005050505050505050505060606060606D4
:104E880006060606060606060606060606060606BA
:104E980006060606060606060606070707070707A4
:104EA800070707070707070707070707070707078A
:104EB800070707070707070707070707070707077A
:104EC800070707070707070707070707070707076A
:104ED8000707070707070707070708080808080854
:104EE800080808080808080808080808080808083A
:104EF800080808080808080808080808080808082A
:104F08000808080808080808080808080808080819
:104F18000808080808080808080808080808080809
:104F280008080808080808080808080808080808F9
:104F380008080808080808080808080808080808E9
:104F480008080808080808080808080808080808D9
:0A4F580008080808080808080808FF
:00000001FF
