:020000040800F2
:100000000050002021020008270200082B020008EF
:1000100043020008470200085F02000800000000D9
:10002000000000000000000000000000770200084F
:100030007B020008000000007F020008250B00087A
:100040009102000891020008910200089102000844
:100050009102000891020008910200089102000834
:100060009102000891020008910200089102000824
:100070009102000891020008910200089102000814
:100080009102000891020008910200089102000804
:1000900091020008910200089102000891020008F4
:1000A00091020008910200089102000891020008E4
:1000B00091020008910200089102000891020008D4
:1000C00091020008910200089102000891020008C4
:1000D00091020008910200089102000891020008B4
:1000E000910200089102000891020008000000003F
:1000F0000000000000000000000000000000000000
:1001000000000000000000005FF808F100B583B0B7
:1001100000F0DEF8304B314A1360314A1360314B46
:10012000314A32498B4204D21168196004330432D7
:10013000F7E72A4B1A682E4B9A4200D0FEE7284B6D
:100140001A682C4B9A42F9D1234B2B4A13602B4A45
:1001500013602B4B02E000221A600433294A9342B9
:10016000F9D3254B1B6813B9244B1B6803B1FEE779
:1001700000F0BAF8694601A800F0A2F8224C234B1F
:10018000E41AA4100025AC4214DC214C214BE41AE3
:10019000A4100025AC4213DC0099019800F09AFDF0
:1001A00005461D4C1D4BE41AA410002C0EDC2846FD
:1001B00000F084F8154B53F8253098470135E2E7F5
:1001C000144B53F8253098470135E3E7013C134BB6
:1001D00053F824309847E8E7BABADECA0000002096
:1001E0002400002000000020640F000828000020E8
:1001F000785634123254769828000020F4140020E7
:1002000028000020F8140020BC020008BC020008EE
:10021000BC020008BC020008BC020008BC020008C6
:1002200008B5FFF773FF00BEFEE71EF0040F0CBF1A
:10023000EFF30880EFF309807146124A104700BEC1
:10024000FEE700BEFEE71EF0040F0CBFEFF30880D0
:10025000EFF3098071460C4A104700BEFEE71EF01E
:10026000040F0CBFEFF30880EFF309807146074AD3
:10027000104700BEFEE700BEFEE700BEFEE700BE80
:10028000FEE770473F0200085B02000873020008A7
:0402900000BEFEE7C7
:10029400640F00080000002028000020640F0008FC
:1002A400000000000000000028000020F8140020D6
:0802B400000000000000000042
:1002BC00FEE7000001230360014B0B60704700BF99
:1002CC000400002008B500F073F8024A024B9A6053
:1002DC0008BD00BF0000000800ED00E008B500F00C
:1002EC008FF808BD82B00023019300932C4A136849
:1002FC0043F4803313602A4B1B6803F400330093E0
:10030C00019B01330193009B1BB9019BB3F5A06FBB
:10031C00F1D1234B1B6813F4003F06D0012300934B
:10032C00009B012B04D002B0704700230093F7E729
:10033C001C4B1A6842F010021A601A6822F0030271
:10034C001A601A6842F002021A60A3F580535A68C8
:10035C005A605A685A605A6842F480625A605A6805
:10036C0022F47C125A605A6842F4E8125A601A68F5
:10037C0042F080721A600A4B1B6813F0007FFAD0AF
:10038C00074B5A6822F003025A605A6842F0020284
:10039C005A60034B5B6803F00C03082BF9D1C2E7DE
:1003AC00001002400020024008B5FFF79BFF08BD7B
:1003BC0008B5104B1A6842F001021A6059680E4ACF
:1003CC000A405A601A6822F0847222F480321A6051
:1003DC001A6822F480221A605A6822F4FE025A60CB
:1003EC004FF41F029A60FFF7DFFF044B4FF00062DF
:1003FC009A6008BD001002400000FFF800ED00E01C
:10040C001F4B5B6803F00C03042B15D0082B17D083
:10041C001BB11C4B1C4A1A6002E01A4B1A4A1A6098
:10042C00174B5B68C3F30313184AD35CDAB2154954
:10043C000B68D3400B607047124B134A1A60EFE7FE
:10044C000F4A53685268C3F38343023312F4803F5C
:10045C000AD00B4A526812F4003F0BD00C4A02FB34
:10046C0003F3084A1360DBE7094A02FB03F3054A6E
:10047C001360D5E7044A02FB03F3024A1360CFE78B
:10048C00001002401C00002000127A000C0000201A
:10049C0000093D0010B4012824D018B1022841D025
:1004AC0010BC7047072910D90F29F9D8A1F10804FD
:1004BC00E4B2A4000F23A3402A48016821EA0303F5
:1004CC0002FA04F119430160EAE789000F2303FAE9
:1004DC0001F0254C236823EA000302FA01F11943C9
:1004EC002160DDE7072910D90F29D9D8A1F108001F
:1004FC00C0B280000F2383401C4C216821EA030307
:10050C0002FA00F119432160CAE789000F2303FAAC
:10051C0001F0174C236823EA000302FA01F1194396
:10052C002160BDE7072910D90F29B9D8A1F108031B
:10053C00DBB29B000F2098400E4C216821EA000092
:10054C0002FA03F101432160AAE789000F2303FAA1
:10055C0001F0094C236823EA000302FA01F1194364
:10056C0021609DE70408014000080140040C014093
:10057C00000C0140041001400010014010B5002097
:10058C00044605E000F00AFB254B18550134A4B2D3
:10059C008228F7D12246A4F115032149CB5CDBB2AA
:1005AC00432B17D01E4B5B7FDBB22B2B19D01C4B74
:1005BC009B7FDBB22B2B1BD0531F1949CB5CDBB2BF
:1005CC004F2B1CD0D31F1649CB5CDBB24F2B1DD04D
:1005DC00002010BD143C0B5DDBB24F2BE2D101208F
:1005EC00F7E70F4B9B7FDBB2492BE0D10220F0E702
:1005FC000B4BDB7FDBB2492BDED10220E9E7131F6B
:10060C00CB5CDBB24B2BDDD10220E2E7063A8B5CF4
:10061C00DBB24B2B01D00020DBE70320D9E700BF76
:10062C0030000020002303E0034A0021D1540133A1
:10063C00B3F5FA6FF8DD70473000002008B50020E4
:10064C0004E0084800F098FAFFF798FF0028F8D06B
:10065C00002004E0044800F08FFAFFF78FFF002819
:10066C00F8D008BD240F00082C0F000838B505463B
:10067C000C46002010E00A4800F07EFA284600F0F4
:10068C007BFA084800F078FA204600F075FA064824
:10069C0000F072FAFFF772FF0028ECD038BD00BFF3
:1006AC00F00E0008100F0008FC0E000838B50546C7
:1006BC000C46002010E00A4800F05EFA284600F0D4
:1006CC005BFA084800F058FA204600F055FA064844
:1006DC0000F052FAFFF752FF0028ECD038BD00BFF3
:1006EC00000F0008140F0008280F000810B504466E
:1006FC0000200AE0064800F03FFA204600F03CFAE1
:10070C00044800F039FAFFF739FF0028F2D010BD89
:10071C00180F0008280F000810B50446002011E03F
:10072C000A490B48FFF7C2FF0A48FFF7DFFF0A48E8
:10073C0000F022FA204600F01FFA084800F01CFADC
:10074C00FFF71CFF0028EBD010BD00BF040E000803
:10075C00080E0008180E00081C0E0008280E0008D1
:10076C0010B582B0044600208DF807008DF8060005
:10077C0013E021492148FFF799FF2148FFF7B6FF05
:10078C00204800F0F9F9204600F0F6F91E4800F078
:10079C00F3F900F003FAFFF7F1FE0028E9D000238B
:1007AC008DF805309DF80530DBB2184AD25CD2B218
:1007BC009DF805300133DBB28DF805303A2AF1D1C2
:1007CC009DF80530DBB2114AD35C303BDBB28DF8BF
:1007DC0007309DF805300133D35C303BDBB28DF82C
:1007EC0006309DF8073003EB83035A009DF8060092
:1007FC00104402B010BD00BF040E0008080E000823
:10080C00380E00081C0E00083C0E000830000020BA
:10081C0010B50446002011E00B490C48FFF746FFC9
:10082C000B48FFF763FF0B4800F0A6F9204600F0D9
:10083C00A3F9094800F0A0F9FFF7A0FE0028EBD0BF
:10084C00FFF7F0FE10BD00BF040E0008080E0008F4
:10085C00500E0008540E0008780E000808B5002051
:10086C000BE008490848FFF721FF0848FFF73EFF57
:10087C00074800F081F9FFF781FE0028F1D0FFF75F
:10088C00D1FE08BD040E0008080E0008A40E0008D6
:10089C00A80E000810B50446002011E00B490C48C6
:1008AC00FFF704FF0B48FFF721FF0B4800F064F93A
:1008BC00204600F061F9094800F05EF9FFF75EFE92
:1008CC000028EBD0FFF7AEFE10BD00BF040E0008F1
:1008DC00080E0008EC0E0008540E0008780E0008F4
:1008EC00154BDB6813F0010FFAD1134B1B6913F096
:1008FC00800F05D0104B114A5A6002F188325A60B1
:10090C000D4B1A6942F002021A61800200F100607C
:10091C0058611A6942F040021A61074BDB6813F008
:10092C00010FFAD1044BDA6842F02002DA601A693E
:10093C0022F002021A617047002002402301674531
:10094C0010B5042404E02046FFF7CAFF0134E4B2DA
:10095C003F2CF8D910BD000030B482B0184BDB68C6
:10096C0013F0010FFAD1164B1B6913F0800F05D051
:10097C00134B144C5C6004F188345C6000241AE066
:10098C000F4D2B6943F001032B6131F81430ADF896
:10099C00063020F8023B0A4BDB6813F0010FFAD14A
:1009AC00074BDD6845F02005DD601D6925F001056C
:1009BC001D610134E4B29442E2D302B030BC704702
:1009CC0000200240230167450246A0F13003D8B253
:1009DC00092802D9A2F13700C0B270472DE9F84FAF
:1009EC0006464078FFF7F0FF0746B078FFF7ECFFBC
:1009FC0040EA0717FFB2F078FFF7E6FF04463079BC
:100A0C00FFF7E2FF05467079FFF7DEFF8046B0790D
:100A1C00FFF7DAFF1F4A538840EA034040EA081800
:100A2C0048EA052848EA0438C2F80080002527E087
:100A3C004FEA850B0BF10903F05CFFF7C5FF81460C
:100A4C000BF10A03F05CFFF7BFFF82460BF10B03BF
:100A5C00F05CFFF7B9FF04460BF10C0B16F80B001A
:100A6C00FFF7B2FF240344EA002000B240EA0A0078
:100A7C0000B240EA0910084B23F815000135EDB21D
:100A8C007A08AA42D4D804494046FFF765FFBDE86E
:100A9C00F88F00BF20000020B813002008B5037A9F
:100AAC00302B00D008BDFFF799FFFBE7034B8122E9
:100ABC001A60043300221A60704700BF0010024015
:100ACC001F291CD801280BD010B1022810D0704758
:100ADC00012303FA01F10A4A13680B4313607047B0
:100AEC00012303FA01F1074A13680B4313607047A3
:100AFC00012303FA01F1044A13680B431360704796
:100B0C00141002401C10024018100240014B00222D
:100B1C001A60704710E000E008B50A4B1B785BB90F
:100B2C00094B1A6822F002021A601A6842F001029C
:100B3C001A6000225A609A60044B1B689847024B5B
:100B4C001B6808BD8414002010E000E08014002015
:100B5C00084B45229A60DA6842F00802DA60DA68DB
:100B6C0042F00402DA60DA6842F40052DA600022E1
:100B7C001A60704700380140002208E006494B60BB
:100B8C00054B1B6813F0400FFAD00132D2B28356DA
:100B9C00002BF3D1704700BF003801400023084AF6
:100BAC00126812F0200F05D10133064A9342F6D198
:100BBC00822000E0002010B9014B5868C0B2704789
:100BCC000038014080841E0008B5044B044A1A60AA
:100BDC00044B1B68044A1360984708BD08ED00E0FD
:100BEC0000100008041000088814002008B5002329
:100BFC00324A138003E0324A0021D1540133642B72
:100C0C00F9DD04E02D4A138801339BB213802B4B82
:100C1C001B889BB22B4AD35CDBB23A2BF2D1274A0E
:100C2C00138801339BB2138000220DE023490B88FB
:100C3C009BB22448C35CDBB2214883540132D2B24C
:100C4C000B8801339BB20B801C4B1B889BB21D493C
:100C5C00CB5CDBB20A2BE9D11948FFF71FFF174A0F
:100C6C00138801339BB213801DE014490B889BB28F
:100C7C001448C35CDBB2124883540132D2B20B88E5
:100C8C0001339BB20B800D4B1B889BB20D49CB5C87
:100C9C00DBB20A2BE9D10A48FFF700FF074A138899
:100CAC0001339BB21380054B1B889BB2054AD35C66
:100CBC00DBB23A2B01D10022E5E708BDF01400208D
:100CCC008C1400203000002030B583B00024ADF827
:100CDC0004408DF80640FFF7E9FE0E210220FFF7D5
:100CEC00EFFE02210846FFF7EBFE04212046FFF73A
:100CFC00E7FE0A2209212046FFF7CCFB04220A2139
:100D0C002046FFF7C7FBFFF723FFFFF7FFFEFFF7B8
:100D1C0095FC33493348FFF7A9FC3348FFF7FCFC3B
:100D2C0004E0324A138801339BB213802F4B1B888B
:100D3C009BB22F4AD35CDBB23A2BF2D12B4A1388ED
:100D4C0001339BB2138013889BB2294AD35CDBB26C
:100D5C00312B07D0FFF7F4FD2348FFF701FDC5B297
:100D6C0001242DE0FFF730FF37E004F130038DF85C
:100D7C00043000238DF8053001A8FFF749FD1A480F
:100D8C00FFF7CAFCFFF732FF18E031238DF804306F
:100D9C00184BA3FB0423DB0803EB83035A00A21AB2
:100DAC0030328DF8052000238DF8063001A8FFF7AE
:100DBC0071FD0D48FFF7B0FCFFF718FF0134E4B2EA
:100DCC00AC4206D8631EDBB2082BCED9092CDCD87A
:100DDC00F4E7FFF743FDFFF7F7FE002003B030BD4B
:100DEC003C0F0008480F0008500F0008F0140020BA
:100DFC0030000020CDCCCCCC383000003136322E37
:100E0C003235332E3135352E323236003433000044
:100E1C0047455420687474703A2F2F002F62756602
:100E2C006665722E7478740D0A0000003439000067
:100E3C002F6E756D6265725F70616765732E747865
:100E4C00740D0A0037350000474554202F73637228
:100E5C006970742E7068703F636F6D6D616E643D68
:100E6C003126706167655F6E6F3D000020485454F9
:100E7C00502F312E310D0A486F73743A2061626124
:100E8C006E6F75622E667265657661722E636F6D1C
:100E9C000D0A0D0A000000003635000047455420AD
:100EAC002F7363726970742E7068703F636F6D6D11
:100EBC00616E643D3220485454502F312E310D0A4E
:100ECC00486F73743A206162616E6F75622E667240
:100EDC0065657661722E636F6D0D0A0D0A00000058
:100EEC003736000041542B43574A41503D220000F5
:100EFC00220D0A0041542B43495053544152543D46
:100F0C0022544350222C2200222C000041542B430B
:100F1C00495053454E443D00415445310D0A0000A3
:100F2C0041542B43574D4F44453D310D0A000000B1
:100F3C003131313131313131000000003132333453
:100F4C00000000006162616E6F75622E66726565ED
:080F5C007661722E636F6D00D7
:100F6400785634122C00002000000000000000001D
:100F740000000000010203040607080900A24A0455
:080F84000000000832547698C9
:040000050800010DE1
:00000001FF
