:020000040800F2
:100000000050002021020008270200082B020008EF
:1000100043020008470200085F02000800000000D9
:10002000000000000000000000000000770200084F
:100030007B020008000000007F0200089D0B000802
:100040009102000891020008910200089102000844
:100050009102000891020008910200089102000834
:100060009102000891020008910200089102000824
:100070009102000891020008910200089102000814
:100080009102000891020008910200089102000804
:1000900091020008910200089102000891020008F4
:1000A00091020008910200089102000891020008E4
:1000B00091020008910200089102000891020008D4
:1000C00091020008910200089102000891020008C4
:1000D00091020008E10B000891020008910200085B
:1000E000910200089102000891020008000000003F
:1000F0000000000000000000000000000000000000
:1001000000000000000000005FF808F100B583B0B7
:1001100000F0DEF8304B314A1360314A1360314B46
:10012000314A32498B4204D21168196004330432D7
:10013000F7E72A4B1A682E4B9A4200D0FEE7284B6D
:100140001A682C4B9A42F9D1234B2B4A13602B4A45
:1001500013602B4B02E000221A600433294A9342B9
:10016000F9D3254B1B6813B9244B1B6803B1FEE779
:1001700000F0BAF8694601A800F0A2F8224C234B1F
:10018000E41AA4100025AC4214DC214C214BE41AE3
:10019000A4100025AC4213DC0099019800F0B4FDD6
:1001A00005461D4C1D4BE41AA410002C0EDC2846FD
:1001B00000F084F8154B53F8253098470135E2E7F5
:1001C000144B53F8253098470135E3E7013C134BB6
:1001D00053F824309847E8E7BABADECA0000002096
:1001E0002400002000000020D40F00082800002078
:1001F0007856341232547698280000208428002043
:100200002800002088280020BC020008BC0200084A
:10021000BC020008BC020008BC020008BC020008C6
:1002200008B5FFF773FF00BEFEE71EF0040F0CBF1A
:10023000EFF30880EFF309807146124A104700BEC1
:10024000FEE700BEFEE71EF0040F0CBFEFF30880D0
:10025000EFF3098071460C4A104700BEFEE71EF01E
:10026000040F0CBFEFF30880EFF309807146074AD3
:10027000104700BEFEE700BEFEE700BEFEE700BE80
:10028000FEE770473F0200085B02000873020008A7
:0402900000BEFEE7C7
:10029400D40F00080000002028000020D40F00081C
:1002A4000000000000000000280000208828002032
:0802B400000000000000000042
:1002BC00FEE7000001230360014B0B60704700BF99
:1002CC000400002008B500F073F8024A024B9A6053
:1002DC0008BD00BF0000000800ED00E008B500F00C
:1002EC008FF808BD82B00023019300932C4A136849
:1002FC0043F4803313602A4B1B6803F400330093E0
:10030C00019B01330193009B1BB9019BB3F5A06FBB
:10031C00F1D1234B1B6813F4003F06D0012300934B
:10032C00009B012B04D002B0704700230093F7E729
:10033C001C4B1A6842F010021A601A6822F0030271
:10034C001A601A6842F002021A60A3F580535A68C8
:10035C005A605A685A605A6842F480625A605A6805
:10036C0022F47C125A605A6842F4E8125A601A68F5
:10037C0042F080721A600A4B1B6813F0007FFAD0AF
:10038C00074B5A6822F003025A605A6842F0020284
:10039C005A60034B5B6803F00C03082BF9D1C2E7DE
:1003AC00001002400020024008B5FFF79BFF08BD7B
:1003BC0008B5104B1A6842F001021A6059680E4ACF
:1003CC000A405A601A6822F0847222F480321A6051
:1003DC001A6822F480221A605A6822F4FE025A60CB
:1003EC004FF41F029A60FFF7DFFF044B4FF00062DF
:1003FC009A6008BD001002400000FFF800ED00E01C
:10040C001F4B5B6803F00C03042B15D0082B17D083
:10041C001BB11C4B1C4A1A6002E01A4B1A4A1A6098
:10042C00174B5B68C3F30313184AD35CDAB2154954
:10043C000B68D3400B607047124B134A1A60EFE7FE
:10044C000F4A53685268C3F38343023312F4803F5C
:10045C000AD00B4A526812F4003F0BD00C4A02FB34
:10046C0003F3084A1360DBE7094A02FB03F3054A6E
:10047C001360D5E7044A02FB03F3024A1360CFE78B
:10048C00001002401C00002000127A000C0000201A
:10049C0000093D0010B4012824D018B1022841D025
:1004AC0010BC7047072910D90F29F9D8A1F10804FD
:1004BC00E4B2A4000F23A3402A48016821EA0303F5
:1004CC0002FA04F119430160EAE789000F2303FAE9
:1004DC0001F0254C236823EA000302FA01F11943C9
:1004EC002160DDE7072910D90F29D9D8A1F108001F
:1004FC00C0B280000F2383401C4C216821EA030307
:10050C0002FA00F119432160CAE789000F2303FAAC
:10051C0001F0174C236823EA000302FA01F1194396
:10052C002160BDE7072910D90F29B9D8A1F108031B
:10053C00DBB29B000F2098400E4C216821EA000092
:10054C0002FA03F101432160AAE789000F2303FAA1
:10055C0001F0094C236823EA000302FA01F1194364
:10056C0021609DE70408014000080140040C014093
:10057C00000C014004100140001001401F4B1B886F
:10058C00A3F115021E498A5C432A14D01C4A92F826
:10059C0036202B2A16D01A4A927F2B2A19D01A1FD2
:1005AC0017498A5C4F2A1AD0DA1F15498A5C4F2AE0
:1005BC001BD000207047A3F114028A5C4F2AE5D1AE
:1005CC00012070470E4A92F83720492AE3D10220C5
:1005DC0070470B4AD27F492AE1D102207047DA1EBC
:1005EC008A5C4B2AE0D102207047063BCB5C4B2B3C
:1005FC0001D0002070470320704700BF4027002027
:10060C003000002038B5064C258800F019FB054B4E
:10061C00585523880133238000F018FB38BD00BFE8
:10062C00402700203000002008B5104800F0CCFA1C
:10063C0000200F4B188007E00E4800F0EFFA0E4830
:10064C0000F08CFAFFF79AFF0028F5D00020084B39
:10065C00188007E0094800F0E1FA074800F07EFA3C
:10066C00FFF78CFF0028F5D008BD00BF110600086D
:10067C0040270020840F0008C0C62D00940F0008EE
:10068C0038B505460C4600200C4B188013E00C487E
:10069C0000F0C4FA284600F0C1FA0A4800F0BEFA8D
:1006AC00204600F0BBFA084800F0B8FA074800F002
:1006BC0055FAFFF763FF0028E9D038BD402700202A
:1006CC00500F0008700F00085C0F0008404B4C00E6
:1006DC0038B505460C4600200C4B188013E00C482E
:1006EC0000F09CFA284600F099FA0A4800F096FAB5
:1006FC00204600F093FA084800F090FA074800F002
:10070C002DFAFFF73BFF0028E9D038BD4027002029
:10071C00600F0008740F0008A00F0008C0C62D0061
:10072C0010B50446074B00221A80074800F076FAF1
:10073C00204600F073FA054800F070FA044800F007
:10074C000DFA10BD40270020780F0008A00F0008FC
:10075C00C0C62D0010B5044600200D4B188014E0C7
:10076C000C490D48FFF7B4FF0C48FFF7D9FF0C48B4
:10077C0000F054FA204600F051FA0A4800F04EFA04
:10078C00094800F0EBF9FFF7F9FE0028E8D010BD9E
:10079C0040270020640E0008680E0008780E000840
:1007AC007C0E0008880E0008804A5D0510B50446D2
:1007BC00002014E015491648FFF78AFF1548FFF78B
:1007CC00AFFF154800F02AFA204600F027FA13482C
:1007DC0000F024FA124800F0C1F9FFF7CFFE002810
:1007EC00E8D000230F4AD25C0133DBB23A2AF9D1AC
:1007FC000C49CA5C303AD2B20133CB5CA3F1300164
:10080C0002EB82035800C9B2084410BD640E000804
:10081C00680E0008980E00087C0E00089C0E00085C
:10082C0000B4C4043000002010B50446002014E0CD
:10083C000B490C48FFF74CFF0B48FFF771FF0B48B7
:10084C0000F0ECF9204600F0E9F9094800F0E6F96F
:10085C00084800F083F9FFF791FE0028E8D010BD9E
:10086C00640E0008680E0008B00E0008B40E0008F4
:10087C00D80E000800093D0008B500200A4B18806E
:10088C000EE00A490A48FFF723FF0A48FFF748FF22
:10089C00094800F0C3F9094800F060F9FFF76EFE53
:1008AC000028EED008BD00BF40270020640E0008D1
:1008BC00680E0008040F0008080F0008002D310115
:1008CC0010B50446002014E00B490C48FFF700FF5C
:1008DC000B48FFF725FF0B4800F0A0F9204600F06D
:1008EC009DF9094800F09AF9084800F037F9FFF72C
:1008FC0045FE0028E8D010BD640E0008680E000804
:10090C004C0F0008B40E0008D80E0008C0C62D000D
:10091C00154BDB6813F0010FFAD1134B1B6913F065
:10092C00800F05D0104B114A5A6002F188325A6080
:10093C000D4B1A6942F002021A61800200F100604C
:10094C0058611A6942F040021A61074BDB6813F0D8
:10095C00010FFAD1044BDA6842F02002DA601A690E
:10096C0022F002021A617047002002402301674501
:10097C0010B5042404E02046FFF7CAFF0134E4B2AA
:10098C003F2CF8D910BD000030B482B0184BDB6896
:10099C0013F0010FFAD1164B1B6913F0800F05D021
:1009AC00134B144C5C6004F188345C6000241AE036
:1009BC000F4D2B6943F001032B6131F81430ADF866
:1009CC00063020F8023B0A4BDB6813F0010FFAD11A
:1009DC00074BDD6845F02005DD601D6925F001053C
:1009EC001D610134E4B29442E2D302B030BC7047D2
:1009FC00002002402301674500F01F00012303FA89
:100A0C0000F0014B1860704704E100E00246A0F1D1
:100A1C003003D8B2092802D9A2F13700C0B270470E
:100A2C002DE9F84F06464078FFF7F0FF0746B078FF
:100A3C00FFF7ECFF40EA0717FFB2F078FFF7E6FF8D
:100A4C0004463079FFF7E2FF05467079FFF7DEFFC9
:100A5C008046B079FFF7DAFF1F4A538840EA03401B
:100A6C0040EA081848EA052848EA0438C2F8008029
:100A7C00002527E04FEA850B0BF10903F05CFFF72B
:100A8C00C5FF81460BF10A03F05CFFF7BFFF8246FE
:100A9C000BF10B03F05CFFF7B9FF04460BF10C0BE9
:100AAC0016F80B00FFF7B2FF240344EA002000B253
:100ABC0040EA0A0000B240EA0910084B23F815007E
:100ACC000135EDB27A08AA42D4D804494046FFF762
:100ADC005BFFBDE8F88F00BF2000002044270020FA
:100AEC0008B5037A302B00D008BDFFF799FFFBE760
:100AFC00034B81221A60043300221A60704700BF36
:100B0C00001002401F291CD801280BD010B102285C
:100B1C0010D07047012303FA01F10A4A13680B4302
:100B2C0013607047012303FA01F1074A13680B4362
:100B3C0013607047012303FA01F1044A13680B4355
:100B4C0013607047141002401C1002401810024031
:100B5C00014B00221A60704710E000E00B4B58600C
:100B6C001A6842F001021A601A6822F002021A6036
:100B7C00064B1B6813F4803FFAD0044B1A6822F022
:100B8C0001021A6000225A609A60704710E000E07F
:100B9C0008B50A4B1B785BB9094B1A6822F00202A4
:100BAC001A601A6842F001021A6000225A609A60B8
:100BBC00044B1B689847024B1B6808BD102800208B
:100BCC0010E000E00C280020014B1860704700BFBB
:100BDC001428002008B5034B00221A60024B1B6836
:100BEC00984708BD00380140142800200A4B4522C4
:100BFC009A60DA6842F02002DA60DA6842F00802A1
:100C0C00DA60DA6842F00402DA60DA6842F4005220
:100C1C00DA6000221A60704700380140002208E0B8
:100C2C0006494B60054B1B6813F0400FFAD001329C
:100C3C00D2B28356002BF3D1704700BF003801406D
:100C4C00014B5868C0B2704700380140014B00227C
:100C5C001A6070470038014008B5044B044A1A600A
:100C6C00044B1B68044A1360984708BD08ED00E06C
:100C7C0000100008041000081828002008B51C4BB0
:100C8C0000221A8002E00133194A1380184B1B888A
:100C9C00184AD25C3A2AF6D10133154A138013E074
:100CAC00154881540132D2B2013311490B80104BDB
:100CBC001B881049C95C0A29F2D10F48FFF710FFB5
:100CCC000B4A138801331380094B1B88094AD35CE8
:100CDC003A2B01D10022EAE7002304E0054A002167
:100CEC00D15401339BB242F20F729342F6D908BD34
:100CFC001C280020300000202028002030B583B0B4
:100D0C000024ADF804408DF80640FFF7F1FE0E21EB
:100D1C000220FFF7F7FE02210846FFF7F3FE04213D
:100D2C002046FFF7EFFE0A2209212046FFF7B2FB0F
:100D3C0004220A212046FFF7ADFB2520FFF75CFEBD
:100D4C00FFF754FFFFF704FFFFF76EFC3C493D48EB
:100D5C00FFF796FC3C48FFF7FDFC02E001333B4AF1
:100D6C0013803A4B1B883A4AD25C3A2AF6D10133AB
:100D7C009BB2364A1380364AD35C312B07D0FFF72F
:100D8C00F7FD3148FFF712FDC5B2012413E0FFF760
:100D9C0063FF52E004F130038DF8043000238DF82A
:100DAC00053001A8FFF740FD2748FFF7D3FCFFF7FC
:100DBC0065FF0134E4B2AC423BD8631EDBB2082BB6
:100DCC00E8D9A4F10A03DBB2092B1BD9132CF0D9F7
:100DDC0032238DF804301F4BA3FB04231B0903EBB8
:100DEC0083039A00A21A30328DF8052000238DF867
:100DFC00063001A8FFF764FD1348FFF7ABFCFFF7C3
:100E0C003DFFD6E731238DF804300A22B4FBF2F310
:100E1C0002FB134330338DF8053000238DF8063078
:100E2C0001A8FFF74DFD0848FFF794FCFFF726FFDC
:100E3C00BFE7FFF721FDFFF70FFF002003B030BD28
:100E4C00A40F0008B40F0008C00F00081C280020D5
:100E5C0030000020CDCCCCCC383000003136322ED6
:100E6C003235332E3135352E3232360034330000E4
:100E7C0047455420687474703A2F2F002F627566A2
:100E8C006665722E7478740D0A0000003439000007
:100E9C002F6E756D6265725F70616765732E747805
:100EAC00740D0A0037350000474554202F736372C8
:100EBC006970742E7068703F636F6D6D616E643D08
:100ECC003126706167655F6E6F3D00002048545499
:100EDC00502F312E310D0A486F73743A20616261C4
:100EEC006E6F75622E667265657661722E636F6DBC
:100EFC000D0A0D0A0000000036350000474554204D
:100F0C002F7363726970742E7068703F636F6D6DB0
:100F1C00616E643D3220485454502F312E310D0AED
:100F2C00486F73743A206162616E6F75622E6672DF
:100F3C0065657661722E636F6D0D0A0D0A000000F7
:100F4C003736000041542B43574A41503D22000094
:100F5C00220D0A0041542B43495053544152543DE5
:100F6C0022544350222C2200222C000041542B43AB
:100F7C00495053454E443D0041542B43574D4F442B
:100F8C00453D330D0A00000041542B4349504D4F51
:100F9C0044453D300D0A0000323531324057694628
:100FAC006939372A31353200456C736F7564792095
:100FBC00320000006162616E6F75622E667265654B
:080FCC007661722E636F6D0067
:100FD400785634122C0000200000000000000000AD
:100FE40000000000010203040607080900A24A04E5
:080FF400000000083254769859
:040000050800010DE1
:00000001FF
